{
  "_format": "hh3-artifact-1",
  "contractName": "AdapterAave",
  "sourceName": "contracts/AdapterAave.sol",
  "abi": [
    {
      "inputs": [
        {
          "internalType": "address",
          "name": "vault_",
          "type": "address"
        },
        {
          "internalType": "address",
          "name": "usdc_",
          "type": "address"
        },
        {
          "internalType": "address",
          "name": "aUsdc_",
          "type": "address"
        },
        {
          "internalType": "address",
          "name": "aavePool_",
          "type": "address"
        }
      ],
      "stateMutability": "nonpayable",
      "type": "constructor"
    },
    {
      "inputs": [],
      "name": "OnlyVault",
      "type": "error"
    },
    {
      "inputs": [
        {
          "internalType": "address",
          "name": "token",
          "type": "address"
        }
      ],
      "name": "SafeERC20FailedOperation",
      "type": "error"
    },
    {
      "inputs": [],
      "name": "ZeroAddress",
      "type": "error"
    },
    {
      "inputs": [],
      "name": "aUsdc",
      "outputs": [
        {
          "internalType": "contract IERC20",
          "name": "",
          "type": "address"
        }
      ],
      "stateMutability": "view",
      "type": "function"
    },
    {
      "inputs": [],
      "name": "aavePool",
      "outputs": [
        {
          "internalType": "contract IAavePool",
          "name": "",
          "type": "address"
        }
      ],
      "stateMutability": "view",
      "type": "function"
    },
    {
      "inputs": [],
      "name": "balanceInUSDC",
      "outputs": [
        {
          "internalType": "uint256",
          "name": "",
          "type": "uint256"
        }
      ],
      "stateMutability": "view",
      "type": "function"
    },
    {
      "inputs": [
        {
          "internalType": "uint256",
          "name": "amount",
          "type": "uint256"
        }
      ],
      "name": "deposit",
      "outputs": [],
      "stateMutability": "nonpayable",
      "type": "function"
    },
    {
      "inputs": [],
      "name": "revokeApprovals",
      "outputs": [],
      "stateMutability": "nonpayable",
      "type": "function"
    },
    {
      "inputs": [],
      "name": "usdc",
      "outputs": [
        {
          "internalType": "contract IERC20",
          "name": "",
          "type": "address"
        }
      ],
      "stateMutability": "view",
      "type": "function"
    },
    {
      "inputs": [],
      "name": "vault",
      "outputs": [
        {
          "internalType": "address",
          "name": "",
          "type": "address"
        }
      ],
      "stateMutability": "view",
      "type": "function"
    },
    {
      "inputs": [
        {
          "internalType": "uint256",
          "name": "amount",
          "type": "uint256"
        }
      ],
      "name": "withdraw",
      "outputs": [],
      "stateMutability": "nonpayable",
      "type": "function"
    },
    {
      "inputs": [],
      "name": "withdrawAll",
      "outputs": [
        {
          "internalType": "uint256",
          "name": "",
          "type": "uint256"
        }
      ],
      "stateMutability": "nonpayable",
      "type": "function"
    }
  ],
  "bytecode": "0x610100604052348015610010575f5ffd5b50604051610baf380380610baf83398101604081905261002f916101c6565b6001600160a01b038416158061004c57506001600160a01b038316155b8061005e57506001600160a01b038216155b8061007057506001600160a01b038116155b1561008e5760405163d92e233d60e01b815260040160405180910390fd5b6001600160a01b0380851660805283811660a081905283821660c05290821660e0526100bc90825f196100c5565b50505050610217565b6100d18383835f610149565b610144576100e283835f6001610149565b61010f57604051635274afe760e01b81526001600160a01b03841660048201526024015b60405180910390fd5b61011c8383836001610149565b61014457604051635274afe760e01b81526001600160a01b0384166004820152602401610106565b505050565b60405163095ea7b360e01b5f8181526001600160a01b038616600452602485905291602083604481808b5af1925060015f5114831661019f578383151615610193573d5f823e3d81fd5b5f873b113d1516831692505b60405250949350505050565b80516001600160a01b03811681146101c1575f5ffd5b919050565b5f5f5f5f608085870312156101d9575f5ffd5b6101e2856101ab565b93506101f0602086016101ab565b92506101fe604086016101ab565b915061020c606086016101ab565b905092959194509250565b60805160a05160c05160e0516108e96102c65f395f81816101370152818161025201528181610410015281816104f8015261060f01525f818160f201528181610321015261068001525f818160ae015281816101fb015281816103b9015281816104d60152818161057501526105d401525f8181610179015281816101a60152818161022a015281816102cc015281816103e80152818161048b0152818161052a015261059701526108e95ff3fe608060405234801561000f575f5ffd5b5060043610610090575f3560e01c80639265a7d5116100635780639265a7d51461012a578063a03e4bc314610132578063b6b55f2514610159578063da11373c1461016c578063fbfa77cf14610174575f5ffd5b80632e1a7d4d146100945780633e413bee146100a957806365196e1e146100ed578063853828b614610114575b5f5ffd5b6100a76100a2366004610885565b61019b565b005b6100d07f000000000000000000000000000000000000000000000000000000000000000081565b6040516001600160a01b0390911681526020015b60405180910390f35b6100d07f000000000000000000000000000000000000000000000000000000000000000081565b61011c6102c0565b6040519081526020016100e4565b6100a7610480565b6100d07f000000000000000000000000000000000000000000000000000000000000000081565b6100a7610167366004610885565b61051f565b61011c610669565b6100d07f000000000000000000000000000000000000000000000000000000000000000081565b336001600160a01b037f000000000000000000000000000000000000000000000000000000000000000016146101e457604051638d1af8bd60e01b815260040160405180910390fd5b604051631a4ca37b60e21b81526001600160a01b037f000000000000000000000000000000000000000000000000000000000000000081166004830152602482018390527f0000000000000000000000000000000000000000000000000000000000000000811660448301527f000000000000000000000000000000000000000000000000000000000000000016906369328dec906064016020604051808303815f875af1158015610298573d5f5f3e3d5ffd5b505050506040513d601f19601f820116820180604052508101906102bc919061089c565b5050565b5f336001600160a01b037f0000000000000000000000000000000000000000000000000000000000000000161461030a57604051638d1af8bd60e01b815260040160405180910390fd5b6040516370a0823160e01b81523060048201525f907f00000000000000000000000000000000000000000000000000000000000000006001600160a01b0316906370a0823190602401602060405180830381865afa15801561036e573d5f5f3e3d5ffd5b505050506040513d601f19601f82011682018060405250810190610392919061089c565b9050805f036103a2575f91505090565b604051631a4ca37b60e21b81526001600160a01b037f0000000000000000000000000000000000000000000000000000000000000000811660048301525f1960248301527f0000000000000000000000000000000000000000000000000000000000000000811660448301527f000000000000000000000000000000000000000000000000000000000000000016906369328dec906064016020604051808303815f875af1158015610456573d5f5f3e3d5ffd5b505050506040513d601f19601f8201168201806040525081019061047a919061089c565b91505090565b336001600160a01b037f000000000000000000000000000000000000000000000000000000000000000016146104c957604051638d1af8bd60e01b815260040160405180910390fd5b61051d6001600160a01b037f0000000000000000000000000000000000000000000000000000000000000000167f00000000000000000000000000000000000000000000000000000000000000005f6106f6565b565b336001600160a01b037f0000000000000000000000000000000000000000000000000000000000000000161461056857604051638d1af8bd60e01b815260040160405180910390fd5b6105bd6001600160a01b037f0000000000000000000000000000000000000000000000000000000000000000167f0000000000000000000000000000000000000000000000000000000000000000308461077a565b60405163617ba03760e01b81526001600160a01b037f000000000000000000000000000000000000000000000000000000000000000081166004830152602482018390523060448301525f60648301527f0000000000000000000000000000000000000000000000000000000000000000169063617ba037906084015f604051808303815f87803b158015610650575f5ffd5b505af1158015610662573d5f5f3e3d5ffd5b5050505050565b6040516370a0823160e01b81523060048201525f907f00000000000000000000000000000000000000000000000000000000000000006001600160a01b0316906370a0823190602401602060405180830381865afa1580156106cd573d5f5f3e3d5ffd5b505050506040513d601f19601f820116820180604052508101906106f1919061089c565b905090565b6107028383835f6107b6565b6107755761071383835f60016107b6565b61074057604051635274afe760e01b81526001600160a01b03841660048201526024015b60405180910390fd5b61074d83838360016107b6565b61077557604051635274afe760e01b81526001600160a01b0384166004820152602401610737565b505050565b610788848484846001610818565b6107b057604051635274afe760e01b81526001600160a01b0385166004820152602401610737565b50505050565b60405163095ea7b360e01b5f8181526001600160a01b038616600452602485905291602083604481808b5af1925060015f5114831661080c578383151615610800573d5f823e3d81fd5b5f873b113d1516831692505b60405250949350505050565b6040516323b872dd60e01b5f8181526001600160a01b038781166004528616602452604485905291602083606481808c5af1925060015f51148316610874578383151615610868573d5f823e3d81fd5b5f883b113d1516831692505b604052505f60605295945050505050565b5f60208284031215610895575f5ffd5b5035919050565b5f602082840312156108ac575f5ffd5b505191905056fea264697066735822122096ff3b319612d657e5b4a89b174e8deb6f13d9568845d096aeee408dac68eb4064736f6c63430008200033",
  "linkReferences": {},
  "deployedLinkReferences": {},
  "immutableReferences": {
    "654": [
      {
        "length": 32,
        "start": 377
      },
      {
        "length": 32,
        "start": 422
      },
      {
        "length": 32,
        "start": 554
      },
      {
        "length": 32,
        "start": 716
      },
      {
        "length": 32,
        "start": 1000
      },
      {
        "length": 32,
        "start": 1163
      },
      {
        "length": 32,
        "start": 1322
      },
      {
        "length": 32,
        "start": 1431
      }
    ],
    "658": [
      {
        "length": 32,
        "start": 174
      },
      {
        "length": 32,
        "start": 507
      },
      {
        "length": 32,
        "start": 953
      },
      {
        "length": 32,
        "start": 1238
      },
      {
        "length": 32,
        "start": 1397
      },
      {
        "length": 32,
        "start": 1492
      }
    ],
    "662": [
      {
        "length": 32,
        "start": 242
      },
      {
        "length": 32,
        "start": 801
      },
      {
        "length": 32,
        "start": 1664
      }
    ],
    "666": [
      {
        "length": 32,
        "start": 311
      },
      {
        "length": 32,
        "start": 594
      },
      {
        "length": 32,
        "start": 1040
      },
      {
        "length": 32,
        "start": 1272
      },
      {
        "length": 32,
        "start": 1551
      }
    ]
  },
  "inputSourceName": "project/contracts/AdapterAave.sol",
  "buildInfoId": "solc-0_8_32-13e9ed017582d4166fb0a809d3146a5d67023abd"
}