{
  "_format": "hh3-artifact-1",
  "contractName": "HzStable",
  "sourceName": "contracts/HzStable.sol",
  "abi": [
    {
      "inputs": [
        {
          "internalType": "address",
          "name": "_underlyingAsset",
          "type": "address"
        },
        {
          "internalType": "address",
          "name": "_strategyAdapter",
          "type": "address"
        },
        {
          "internalType": "address",
          "name": "_revenueDistributor",
          "type": "address"
        },
        {
          "internalType": "address",
          "name": "_treasury",
          "type": "address"
        },
        {
          "internalType": "uint256",
          "name": "_harvestInterval",
          "type": "uint256"
        },
        {
          "internalType": "uint256",
          "name": "_feeRate",
          "type": "uint256"
        }
      ],
      "stateMutability": "nonpayable",
      "type": "constructor"
    },
    {
      "inputs": [],
      "name": "AdapterNotSet",
      "type": "error"
    },
    {
      "inputs": [
        {
          "internalType": "address",
          "name": "spender",
          "type": "address"
        },
        {
          "internalType": "uint256",
          "name": "allowance",
          "type": "uint256"
        },
        {
          "internalType": "uint256",
          "name": "needed",
          "type": "uint256"
        }
      ],
      "name": "ERC20InsufficientAllowance",
      "type": "error"
    },
    {
      "inputs": [
        {
          "internalType": "address",
          "name": "sender",
          "type": "address"
        },
        {
          "internalType": "uint256",
          "name": "balance",
          "type": "uint256"
        },
        {
          "internalType": "uint256",
          "name": "needed",
          "type": "uint256"
        }
      ],
      "name": "ERC20InsufficientBalance",
      "type": "error"
    },
    {
      "inputs": [
        {
          "internalType": "address",
          "name": "approver",
          "type": "address"
        }
      ],
      "name": "ERC20InvalidApprover",
      "type": "error"
    },
    {
      "inputs": [
        {
          "internalType": "address",
          "name": "receiver",
          "type": "address"
        }
      ],
      "name": "ERC20InvalidReceiver",
      "type": "error"
    },
    {
      "inputs": [
        {
          "internalType": "address",
          "name": "sender",
          "type": "address"
        }
      ],
      "name": "ERC20InvalidSender",
      "type": "error"
    },
    {
      "inputs": [
        {
          "internalType": "address",
          "name": "spender",
          "type": "address"
        }
      ],
      "name": "ERC20InvalidSpender",
      "type": "error"
    },
    {
      "inputs": [
        {
          "internalType": "address",
          "name": "receiver",
          "type": "address"
        },
        {
          "internalType": "uint256",
          "name": "assets",
          "type": "uint256"
        },
        {
          "internalType": "uint256",
          "name": "max",
          "type": "uint256"
        }
      ],
      "name": "ERC4626ExceededMaxDeposit",
      "type": "error"
    },
    {
      "inputs": [
        {
          "internalType": "address",
          "name": "receiver",
          "type": "address"
        },
        {
          "internalType": "uint256",
          "name": "shares",
          "type": "uint256"
        },
        {
          "internalType": "uint256",
          "name": "max",
          "type": "uint256"
        }
      ],
      "name": "ERC4626ExceededMaxMint",
      "type": "error"
    },
    {
      "inputs": [
        {
          "internalType": "address",
          "name": "owner",
          "type": "address"
        },
        {
          "internalType": "uint256",
          "name": "shares",
          "type": "uint256"
        },
        {
          "internalType": "uint256",
          "name": "max",
          "type": "uint256"
        }
      ],
      "name": "ERC4626ExceededMaxRedeem",
      "type": "error"
    },
    {
      "inputs": [
        {
          "internalType": "address",
          "name": "owner",
          "type": "address"
        },
        {
          "internalType": "uint256",
          "name": "assets",
          "type": "uint256"
        },
        {
          "internalType": "uint256",
          "name": "max",
          "type": "uint256"
        }
      ],
      "name": "ERC4626ExceededMaxWithdraw",
      "type": "error"
    },
    {
      "inputs": [],
      "name": "FeeTooHigh",
      "type": "error"
    },
    {
      "inputs": [],
      "name": "GovStakingAlreadySet",
      "type": "error"
    },
    {
      "inputs": [],
      "name": "GovStakingNotSet",
      "type": "error"
    },
    {
      "inputs": [],
      "name": "HarvestNotReady",
      "type": "error"
    },
    {
      "inputs": [],
      "name": "InvalidInterval",
      "type": "error"
    },
    {
      "inputs": [
        {
          "internalType": "address",
          "name": "owner",
          "type": "address"
        }
      ],
      "name": "OwnableInvalidOwner",
      "type": "error"
    },
    {
      "inputs": [
        {
          "internalType": "address",
          "name": "account",
          "type": "address"
        }
      ],
      "name": "OwnableUnauthorizedAccount",
      "type": "error"
    },
    {
      "inputs": [
        {
          "internalType": "address",
          "name": "token",
          "type": "address"
        }
      ],
      "name": "SafeERC20FailedOperation",
      "type": "error"
    },
    {
      "inputs": [],
      "name": "ZeroAddress",
      "type": "error"
    },
    {
      "anonymous": false,
      "inputs": [
        {
          "indexed": true,
          "internalType": "address",
          "name": "oldAdapter",
          "type": "address"
        },
        {
          "indexed": true,
          "internalType": "address",
          "name": "newAdapter",
          "type": "address"
        }
      ],
      "name": "AdapterUpdated",
      "type": "event"
    },
    {
      "anonymous": false,
      "inputs": [
        {
          "indexed": true,
          "internalType": "address",
          "name": "owner",
          "type": "address"
        },
        {
          "indexed": true,
          "internalType": "address",
          "name": "spender",
          "type": "address"
        },
        {
          "indexed": false,
          "internalType": "uint256",
          "name": "value",
          "type": "uint256"
        }
      ],
      "name": "Approval",
      "type": "event"
    },
    {
      "anonymous": false,
      "inputs": [
        {
          "indexed": true,
          "internalType": "address",
          "name": "sender",
          "type": "address"
        },
        {
          "indexed": true,
          "internalType": "address",
          "name": "owner",
          "type": "address"
        },
        {
          "indexed": false,
          "internalType": "uint256",
          "name": "assets",
          "type": "uint256"
        },
        {
          "indexed": false,
          "internalType": "uint256",
          "name": "shares",
          "type": "uint256"
        }
      ],
      "name": "Deposit",
      "type": "event"
    },
    {
      "anonymous": false,
      "inputs": [
        {
          "indexed": true,
          "internalType": "address",
          "name": "to",
          "type": "address"
        },
        {
          "indexed": false,
          "internalType": "uint256",
          "name": "shares",
          "type": "uint256"
        }
      ],
      "name": "FeesMinted",
      "type": "event"
    },
    {
      "anonymous": false,
      "inputs": [
        {
          "indexed": false,
          "internalType": "uint256",
          "name": "oldInterval",
          "type": "uint256"
        },
        {
          "indexed": false,
          "internalType": "uint256",
          "name": "newInterval",
          "type": "uint256"
        }
      ],
      "name": "HarvestIntervalUpdated",
      "type": "event"
    },
    {
      "anonymous": false,
      "inputs": [
        {
          "indexed": false,
          "internalType": "uint256",
          "name": "totalYield",
          "type": "uint256"
        },
        {
          "indexed": false,
          "internalType": "uint256",
          "name": "sharesMinted",
          "type": "uint256"
        },
        {
          "indexed": false,
          "internalType": "uint256",
          "name": "newPricePerShare",
          "type": "uint256"
        }
      ],
      "name": "Harvested",
      "type": "event"
    },
    {
      "anonymous": false,
      "inputs": [
        {
          "indexed": true,
          "internalType": "address",
          "name": "previousOwner",
          "type": "address"
        },
        {
          "indexed": true,
          "internalType": "address",
          "name": "newOwner",
          "type": "address"
        }
      ],
      "name": "OwnershipTransferred",
      "type": "event"
    },
    {
      "anonymous": false,
      "inputs": [
        {
          "indexed": true,
          "internalType": "address",
          "name": "from",
          "type": "address"
        },
        {
          "indexed": true,
          "internalType": "address",
          "name": "to",
          "type": "address"
        },
        {
          "indexed": false,
          "internalType": "uint256",
          "name": "value",
          "type": "uint256"
        }
      ],
      "name": "Transfer",
      "type": "event"
    },
    {
      "anonymous": false,
      "inputs": [
        {
          "indexed": true,
          "internalType": "address",
          "name": "oldTreasury",
          "type": "address"
        },
        {
          "indexed": true,
          "internalType": "address",
          "name": "newTreasury",
          "type": "address"
        }
      ],
      "name": "TreasuryUpdated",
      "type": "event"
    },
    {
      "anonymous": false,
      "inputs": [
        {
          "indexed": true,
          "internalType": "address",
          "name": "sender",
          "type": "address"
        },
        {
          "indexed": true,
          "internalType": "address",
          "name": "receiver",
          "type": "address"
        },
        {
          "indexed": true,
          "internalType": "address",
          "name": "owner",
          "type": "address"
        },
        {
          "indexed": false,
          "internalType": "uint256",
          "name": "assets",
          "type": "uint256"
        },
        {
          "indexed": false,
          "internalType": "uint256",
          "name": "shares",
          "type": "uint256"
        }
      ],
      "name": "Withdraw",
      "type": "event"
    },
    {
      "inputs": [
        {
          "internalType": "address",
          "name": "owner",
          "type": "address"
        },
        {
          "internalType": "address",
          "name": "spender",
          "type": "address"
        }
      ],
      "name": "allowance",
      "outputs": [
        {
          "internalType": "uint256",
          "name": "",
          "type": "uint256"
        }
      ],
      "stateMutability": "view",
      "type": "function"
    },
    {
      "inputs": [
        {
          "internalType": "address",
          "name": "spender",
          "type": "address"
        },
        {
          "internalType": "uint256",
          "name": "value",
          "type": "uint256"
        }
      ],
      "name": "approve",
      "outputs": [
        {
          "internalType": "bool",
          "name": "",
          "type": "bool"
        }
      ],
      "stateMutability": "nonpayable",
      "type": "function"
    },
    {
      "inputs": [],
      "name": "asset",
      "outputs": [
        {
          "internalType": "address",
          "name": "",
          "type": "address"
        }
      ],
      "stateMutability": "view",
      "type": "function"
    },
    {
      "inputs": [
        {
          "internalType": "address",
          "name": "account",
          "type": "address"
        }
      ],
      "name": "balanceOf",
      "outputs": [
        {
          "internalType": "uint256",
          "name": "",
          "type": "uint256"
        }
      ],
      "stateMutability": "view",
      "type": "function"
    },
    {
      "inputs": [
        {
          "internalType": "uint256",
          "name": "shares",
          "type": "uint256"
        }
      ],
      "name": "convertToAssets",
      "outputs": [
        {
          "internalType": "uint256",
          "name": "",
          "type": "uint256"
        }
      ],
      "stateMutability": "view",
      "type": "function"
    },
    {
      "inputs": [
        {
          "internalType": "uint256",
          "name": "assets",
          "type": "uint256"
        }
      ],
      "name": "convertToShares",
      "outputs": [
        {
          "internalType": "uint256",
          "name": "",
          "type": "uint256"
        }
      ],
      "stateMutability": "view",
      "type": "function"
    },
    {
      "inputs": [],
      "name": "decimals",
      "outputs": [
        {
          "internalType": "uint8",
          "name": "",
          "type": "uint8"
        }
      ],
      "stateMutability": "view",
      "type": "function"
    },
    {
      "inputs": [
        {
          "internalType": "uint256",
          "name": "assets",
          "type": "uint256"
        },
        {
          "internalType": "address",
          "name": "receiver",
          "type": "address"
        }
      ],
      "name": "deposit",
      "outputs": [
        {
          "internalType": "uint256",
          "name": "",
          "type": "uint256"
        }
      ],
      "stateMutability": "nonpayable",
      "type": "function"
    },
    {
      "inputs": [],
      "name": "feeRate",
      "outputs": [
        {
          "internalType": "uint16",
          "name": "",
          "type": "uint16"
        }
      ],
      "stateMutability": "view",
      "type": "function"
    },
    {
      "inputs": [],
      "name": "govStaking",
      "outputs": [
        {
          "internalType": "contract IGovStaking",
          "name": "",
          "type": "address"
        }
      ],
      "stateMutability": "view",
      "type": "function"
    },
    {
      "inputs": [],
      "name": "harvest",
      "outputs": [],
      "stateMutability": "nonpayable",
      "type": "function"
    },
    {
      "inputs": [],
      "name": "harvestInterval",
      "outputs": [
        {
          "internalType": "uint32",
          "name": "",
          "type": "uint32"
        }
      ],
      "stateMutability": "view",
      "type": "function"
    },
    {
      "inputs": [],
      "name": "highWaterMark",
      "outputs": [
        {
          "internalType": "uint256",
          "name": "",
          "type": "uint256"
        }
      ],
      "stateMutability": "view",
      "type": "function"
    },
    {
      "inputs": [],
      "name": "lastHarvest",
      "outputs": [
        {
          "internalType": "uint48",
          "name": "",
          "type": "uint48"
        }
      ],
      "stateMutability": "view",
      "type": "function"
    },
    {
      "inputs": [
        {
          "internalType": "address",
          "name": "",
          "type": "address"
        }
      ],
      "name": "maxDeposit",
      "outputs": [
        {
          "internalType": "uint256",
          "name": "",
          "type": "uint256"
        }
      ],
      "stateMutability": "view",
      "type": "function"
    },
    {
      "inputs": [
        {
          "internalType": "address",
          "name": "",
          "type": "address"
        }
      ],
      "name": "maxMint",
      "outputs": [
        {
          "internalType": "uint256",
          "name": "",
          "type": "uint256"
        }
      ],
      "stateMutability": "view",
      "type": "function"
    },
    {
      "inputs": [
        {
          "internalType": "address",
          "name": "owner",
          "type": "address"
        }
      ],
      "name": "maxRedeem",
      "outputs": [
        {
          "internalType": "uint256",
          "name": "",
          "type": "uint256"
        }
      ],
      "stateMutability": "view",
      "type": "function"
    },
    {
      "inputs": [
        {
          "internalType": "address",
          "name": "owner",
          "type": "address"
        }
      ],
      "name": "maxWithdraw",
      "outputs": [
        {
          "internalType": "uint256",
          "name": "",
          "type": "uint256"
        }
      ],
      "stateMutability": "view",
      "type": "function"
    },
    {
      "inputs": [
        {
          "internalType": "uint256",
          "name": "shares",
          "type": "uint256"
        },
        {
          "internalType": "address",
          "name": "receiver",
          "type": "address"
        }
      ],
      "name": "mint",
      "outputs": [
        {
          "internalType": "uint256",
          "name": "",
          "type": "uint256"
        }
      ],
      "stateMutability": "nonpayable",
      "type": "function"
    },
    {
      "inputs": [],
      "name": "name",
      "outputs": [
        {
          "internalType": "string",
          "name": "",
          "type": "string"
        }
      ],
      "stateMutability": "view",
      "type": "function"
    },
    {
      "inputs": [],
      "name": "owner",
      "outputs": [
        {
          "internalType": "address",
          "name": "",
          "type": "address"
        }
      ],
      "stateMutability": "view",
      "type": "function"
    },
    {
      "inputs": [
        {
          "internalType": "uint256",
          "name": "assets",
          "type": "uint256"
        }
      ],
      "name": "previewDeposit",
      "outputs": [
        {
          "internalType": "uint256",
          "name": "",
          "type": "uint256"
        }
      ],
      "stateMutability": "view",
      "type": "function"
    },
    {
      "inputs": [
        {
          "internalType": "uint256",
          "name": "shares",
          "type": "uint256"
        }
      ],
      "name": "previewMint",
      "outputs": [
        {
          "internalType": "uint256",
          "name": "",
          "type": "uint256"
        }
      ],
      "stateMutability": "view",
      "type": "function"
    },
    {
      "inputs": [
        {
          "internalType": "uint256",
          "name": "shares",
          "type": "uint256"
        }
      ],
      "name": "previewRedeem",
      "outputs": [
        {
          "internalType": "uint256",
          "name": "",
          "type": "uint256"
        }
      ],
      "stateMutability": "view",
      "type": "function"
    },
    {
      "inputs": [
        {
          "internalType": "uint256",
          "name": "assets",
          "type": "uint256"
        }
      ],
      "name": "previewWithdraw",
      "outputs": [
        {
          "internalType": "uint256",
          "name": "",
          "type": "uint256"
        }
      ],
      "stateMutability": "view",
      "type": "function"
    },
    {
      "inputs": [],
      "name": "protocolTreasury",
      "outputs": [
        {
          "internalType": "address",
          "name": "",
          "type": "address"
        }
      ],
      "stateMutability": "view",
      "type": "function"
    },
    {
      "inputs": [
        {
          "internalType": "uint256",
          "name": "shares",
          "type": "uint256"
        },
        {
          "internalType": "address",
          "name": "receiver",
          "type": "address"
        },
        {
          "internalType": "address",
          "name": "owner",
          "type": "address"
        }
      ],
      "name": "redeem",
      "outputs": [
        {
          "internalType": "uint256",
          "name": "",
          "type": "uint256"
        }
      ],
      "stateMutability": "nonpayable",
      "type": "function"
    },
    {
      "inputs": [],
      "name": "renounceOwnership",
      "outputs": [],
      "stateMutability": "nonpayable",
      "type": "function"
    },
    {
      "inputs": [],
      "name": "revenueDistributor",
      "outputs": [
        {
          "internalType": "address",
          "name": "",
          "type": "address"
        }
      ],
      "stateMutability": "view",
      "type": "function"
    },
    {
      "inputs": [],
      "name": "revokeAdapterApproval",
      "outputs": [],
      "stateMutability": "nonpayable",
      "type": "function"
    },
    {
      "inputs": [
        {
          "internalType": "address",
          "name": "newAdapter",
          "type": "address"
        }
      ],
      "name": "setAdapter",
      "outputs": [],
      "stateMutability": "nonpayable",
      "type": "function"
    },
    {
      "inputs": [
        {
          "internalType": "uint256",
          "name": "rate",
          "type": "uint256"
        }
      ],
      "name": "setFeeRate",
      "outputs": [],
      "stateMutability": "nonpayable",
      "type": "function"
    },
    {
      "inputs": [
        {
          "internalType": "address",
          "name": "gs",
          "type": "address"
        }
      ],
      "name": "setGovStaking",
      "outputs": [],
      "stateMutability": "nonpayable",
      "type": "function"
    },
    {
      "inputs": [
        {
          "internalType": "uint256",
          "name": "interval",
          "type": "uint256"
        }
      ],
      "name": "setHarvestInterval",
      "outputs": [],
      "stateMutability": "nonpayable",
      "type": "function"
    },
    {
      "inputs": [
        {
          "internalType": "address",
          "name": "treasury",
          "type": "address"
        }
      ],
      "name": "setProtocolTreasury",
      "outputs": [],
      "stateMutability": "nonpayable",
      "type": "function"
    },
    {
      "inputs": [
        {
          "internalType": "address",
          "name": "rd",
          "type": "address"
        }
      ],
      "name": "setRevenueDistributor",
      "outputs": [],
      "stateMutability": "nonpayable",
      "type": "function"
    },
    {
      "inputs": [],
      "name": "strategyAdapter",
      "outputs": [
        {
          "internalType": "contract IAdapter",
          "name": "",
          "type": "address"
        }
      ],
      "stateMutability": "view",
      "type": "function"
    },
    {
      "inputs": [],
      "name": "symbol",
      "outputs": [
        {
          "internalType": "string",
          "name": "",
          "type": "string"
        }
      ],
      "stateMutability": "view",
      "type": "function"
    },
    {
      "inputs": [],
      "name": "totalAssets",
      "outputs": [
        {
          "internalType": "uint256",
          "name": "",
          "type": "uint256"
        }
      ],
      "stateMutability": "view",
      "type": "function"
    },
    {
      "inputs": [],
      "name": "totalSupply",
      "outputs": [
        {
          "internalType": "uint256",
          "name": "",
          "type": "uint256"
        }
      ],
      "stateMutability": "view",
      "type": "function"
    },
    {
      "inputs": [
        {
          "internalType": "address",
          "name": "to",
          "type": "address"
        },
        {
          "internalType": "uint256",
          "name": "value",
          "type": "uint256"
        }
      ],
      "name": "transfer",
      "outputs": [
        {
          "internalType": "bool",
          "name": "",
          "type": "bool"
        }
      ],
      "stateMutability": "nonpayable",
      "type": "function"
    },
    {
      "inputs": [
        {
          "internalType": "address",
          "name": "from",
          "type": "address"
        },
        {
          "internalType": "address",
          "name": "to",
          "type": "address"
        },
        {
          "internalType": "uint256",
          "name": "value",
          "type": "uint256"
        }
      ],
      "name": "transferFrom",
      "outputs": [
        {
          "internalType": "bool",
          "name": "",
          "type": "bool"
        }
      ],
      "stateMutability": "nonpayable",
      "type": "function"
    },
    {
      "inputs": [
        {
          "internalType": "address",
          "name": "newOwner",
          "type": "address"
        }
      ],
      "name": "transferOwnership",
      "outputs": [],
      "stateMutability": "nonpayable",
      "type": "function"
    },
    {
      "inputs": [
        {
          "internalType": "uint256",
          "name": "assets",
          "type": "uint256"
        },
        {
          "internalType": "address",
          "name": "receiver",
          "type": "address"
        },
        {
          "internalType": "address",
          "name": "owner",
          "type": "address"
        }
      ],
      "name": "withdraw",
      "outputs": [
        {
          "internalType": "uint256",
          "name": "",
          "type": "uint256"
        }
      ],
      "stateMutability": "nonpayable",
      "type": "function"
    }
  ],
  "bytecode": "0x60c060405234801561000f575f5ffd5b506040516125b43803806125b483398101604081905261002e9161043b565b33866040518060400160405280600b81526020016a48617a656c537461626c6560a81b81525060405180604001604052806006815260200165687a5553444360d01b81525081600390816100829190610541565b50600461008f8282610541565b5050505f5f6100a38361023c60201b60201c565b91509150816100b35760126100b5565b805b60ff1660a05250506001600160a01b0390811660805281166100f157604051631e4fbdf760e01b81525f60048201526024015b60405180910390fd5b6100fa816102cd565b50610e1082108061010d575062278d0082115b1561012b576040516305fabb6160e41b815260040160405180910390fd5b61271081111561014e5760405163cd4e616760e01b815260040160405180910390fd5b6001600160a01b038416158061016b57506001600160a01b038316155b156101895760405163d92e233d60e01b815260040160405180910390fd5b600680546001600160a01b03199081166001600160a01b0388811691821790935560078054831688851617905560088054909216928616929092179055600b805465ffffffffffff60301b1916660100000000000063ffffffff86160261ffff60501b1916176a010000000000000000000061ffff8516021765ffffffffffff19164265ffffffffffff1617905515610231576102316001600160a01b038716865f1961031e565b5050505050506105ff565b5f808061024860405190565b6040805160048152602481019091526020810180516001600160e01b0390811663313ce56760e01b179091529192505f9182916102889188919061039d16565b50909250905061029783604052565b8180156102a5575060203d10155b80156102b2575060ff8111155b6102bd575f5f6102c1565b6001815b94509450505050915091565b600580546001600160a01b038381166001600160a01b0319831681179093556040519116919082907f8be0079c531659141344cd1fd0a4f28419497f9722a3daafe3b4186f6b6457e0905f90a35050565b61032a8383835f6103be565b6103985761033b83835f60016103be565b61036357604051635274afe760e01b81526001600160a01b03841660048201526024016100e8565b61037083838360016103be565b61039857604051635274afe760e01b81526001600160a01b03841660048201526024016100e8565b505050565b5f5f5f60405f855160208701885afa92505f51915060205190509250925092565b60405163095ea7b360e01b5f8181526001600160a01b038616600452602485905291602083604481808b5af1925060015f51148316610414578383151615610408573d5f823e3d81fd5b5f873b113d1516831692505b60405250949350505050565b80516001600160a01b0381168114610436575f5ffd5b919050565b5f5f5f5f5f5f60c08789031215610450575f5ffd5b61045987610420565b955061046760208801610420565b945061047560408801610420565b935061048360608801610420565b608088015160a090980151969995985093969395939492505050565b634e487b7160e01b5f52604160045260245ffd5b600181811c908216806104c757607f821691505b6020821081036104e557634e487b7160e01b5f52602260045260245ffd5b50919050565b601f821115610398578282111561039857805f5260205f20601f840160051c602085101561051657505f5b90810190601f840160051c035f5b81811015610539575f83820155600101610524565b505050505050565b81516001600160401b0381111561055a5761055a61049f565b61056e8161056884546104b3565b846104eb565b6020601f8211600181146105a0575f83156105895750848201515b5f19600385901b1c1916600184901b1784556105f8565b5f84815260208120601f198516915b828110156105cf57878501518255602094850194600190920191016105af565b50848210156105ec57868401515f19600387901b60f8161c191681555b505060018360011b0184555b5050505050565b60805160a051611f716106435f395f61085201525f818161037c01528181610ace01528181610d7b01528181610dc00152818161132101526115c30152611f715ff3fe608060405234801561000f575f5ffd5b506004361061026b575f3560e01c80637f38ee531161014b578063b460af94116100bf578063d905777e11610084578063d905777e14610566578063dd62ed3e14610579578063eae0a488146105b1578063ef8b30f714610540578063f1a392da146105c4578063f2fde38b146105ed575f5ffd5b8063b460af941461051a578063ba0876521461052d578063c63d75b6146103c7578063c6e6f59214610540578063ce96cb7714610553575f5ffd5b806394bf804d1161011057806394bf804d1461049e57806395d89b41146104b1578063978bbdb9146104b9578063a9059cbb146104e1578063ab1da79c146104f4578063b3d7f6b914610507575f5ffd5b80637f38ee5314610441578063803db96d146104545780638da5cb5b146104675780639030905e1461047857806390ee9f711461048b575f5ffd5b8063313ce567116101e25780634641257d116101a75780634641257d146103ee5780634cdad5061461029f57806360b07504146103f65780636e553f65146103fe57806370a0823114610411578063715018a614610439575f5ffd5b8063313ce5671461036057806338d52e0f1461037a57806338d7aae1146103b4578063402d267d146103c757806345596e2e146103db575f5ffd5b80630c5a61f8116102335780630c5a61f8146102e857806314dc0ce0146102fd578063179f9e651461032957806318160ddd1461033c5780631e8410da1461034457806323b872dd1461034d575f5ffd5b806301e1d1141461026f57806306fdde031461028a57806307a2d13a1461029f578063095ea7b3146102b25780630a28a477146102d5575b5f5ffd5b610277610600565b6040519081526020015b60405180910390f35b610292610690565b6040516102819190611b63565b6102776102ad366004611b98565b610720565b6102c56102c0366004611bca565b610731565b6040519015158152602001610281565b6102776102e3366004611b98565b610748565b6102fb6102f6366004611bf2565b610754565b005b600b5461031490600160301b900463ffffffff1681565b60405163ffffffff9091168152602001610281565b6102fb610337366004611bf2565b6107d4565b600254610277565b610277600a5481565b6102c561035b366004611c0b565b610825565b61036861084a565b60405160ff9091168152602001610281565b7f00000000000000000000000000000000000000000000000000000000000000005b6040516001600160a01b039091168152602001610281565b6102fb6103c2366004611b98565b610876565b6102776103d5366004611bf2565b505f1990565b6102fb6103e9366004611b98565b610917565b6102fb610964565b6102fb610ab3565b61027761040c366004611c45565b610b62565b61027761041f366004611bf2565b6001600160a01b03165f9081526020819052604090205490565b6102fb610b93565b60095461039c906001600160a01b031681565b60085461039c906001600160a01b031681565b6005546001600160a01b031661039c565b60065461039c906001600160a01b031681565b6102fb610499366004611bf2565b610ba4565b6102776104ac366004611c45565b610c1f565b610292610c3a565b600b546104ce90600160501b900461ffff1681565b60405161ffff9091168152602001610281565b6102c56104ef366004611bca565b610c49565b6102fb610502366004611bf2565b610c56565b610277610515366004611b98565b610e89565b610277610528366004611c6f565b610e95565b61027761053b366004611c6f565b610eeb565b61027761054e366004611b98565b610f38565b610277610561366004611bf2565b610f43565b610277610574366004611bf2565b610f4c565b610277610587366004611ca8565b6001600160a01b039182165f90815260016020908152604080832093909416825291909152205490565b60075461039c906001600160a01b031681565b600b546105d69065ffffffffffff1681565b60405165ffffffffffff9091168152602001610281565b6102fb6105fb366004611bf2565b610fd9565b6006545f906001600160a01b031661061757505f90565b60065f9054906101000a90046001600160a01b03166001600160a01b031663da11373c6040518163ffffffff1660e01b8152600401602060405180830381865afa158015610667573d5f5f3e3d5ffd5b505050506040513d601f19601f8201168201806040525081019061068b9190611cd0565b905090565b60606003805461069f90611ce7565b80601f01602080910402602001604051908101604052809291908181526020018280546106cb90611ce7565b80156107165780601f106106ed57610100808354040283529160200191610716565b820191905f5260205f20905b8154815290600101906020018083116106f957829003601f168201915b5050505050905090565b5f61072b825f611016565b92915050565b5f3361073e81858561104f565b5060019392505050565b5f61072b826001611061565b61075c611091565b6001600160a01b0381166107835760405163d92e233d60e01b815260040160405180910390fd5b600880546001600160a01b038381166001600160a01b0319831681179093556040519116919082907f4ab5be82436d353e61ca18726e984e561f5c1cc7c6d38b29d2553c790434705a905f90a35050565b6107dc611091565b6001600160a01b0381166108035760405163d92e233d60e01b815260040160405180910390fd5b600780546001600160a01b0319166001600160a01b0392909216919091179055565b5f336108328582856110be565b61083d858585611121565b60019150505b9392505050565b5f61068b60037f0000000000000000000000000000000000000000000000000000000000000000611d33565b61087e611091565b610e10811080610890575062278d0081115b156108ae576040516305fabb6160e41b815260040160405180910390fd5b600b805463ffffffff838116600160301b90810269ffffffff0000000000001984161790935560408051939092041680835260208301849052917f45b1987abbab724e4fa4d205dd5607d5114a7cd03cc0fdf63f353b9ceb42480f910160405180910390a15050565b61091f611091565b6127108111156109425760405163cd4e616760e01b815260040160405180910390fd5b600b805461ffff909216600160501b0261ffff60501b19909216919091179055565b600b546109869063ffffffff600160301b8204169065ffffffffffff16611d4c565b65ffffffffffff164210156109ae57604051634514d1a560e01b815260040160405180910390fd5b600b805465ffffffffffff19164265ffffffffffff16179055600254805f036109d45750565b5f6109dd61084a565b6109e890600a611e4d565b90505f6109f482610720565b9050600a545f03610a2057620f42408111610a1257620f4240610a14565b805b600a5550610ab1915050565b5f600a5482610a2f9190611e5b565b90505f8113610a3e5750505050565b5f83610a4a8684611e81565b610a549190611eac565b90505f610a61828761117e565b600a85905560408051848152602081018390529081018690529091507febdd323f18ba49318367d0c92a04d5c51a67f15a60ad50d46523db464661a3029060600160405180910390a15050505050505b565b610abb611091565b600654610afe906001600160a01b03165f7f00000000000000000000000000000000000000000000000000000000000000005b6001600160a01b03169190611248565b60065f9054906101000a90046001600160a01b03166001600160a01b0316639265a7d56040518163ffffffff1660e01b81526004015f604051808303815f87803b158015610b4a575f5ffd5b505af1158015610b5c573d5f5f3e3d5ffd5b50505050565b5f5f19610b73565b60405180910390fd5b5f610b7d85610f38565b9050610b8b338587846112c2565b949350505050565b610b9b611091565b610ab15f61147a565b610bac611091565b6009546001600160a01b031615610bd65760405163982ed7c160e01b815260040160405180910390fd5b6001600160a01b038116610bfd5760405163d92e233d60e01b815260040160405180910390fd5b600980546001600160a01b0319166001600160a01b0392909216919091179055565b5f5f195f610c2c85610e89565b9050610b8b338583886112c2565b60606004805461069f90611ce7565b5f3361073e818585611121565b610c5e611091565b6001600160a01b038116610c855760405163d92e233d60e01b815260040160405180910390fd5b6006546001600160a01b03165f8115610d9d5760065f9054906101000a90046001600160a01b03166001600160a01b031663853828b66040518163ffffffff1660e01b81526004016020604051808303815f875af1158015610ce9573d5f5f3e3d5ffd5b505050506040513d601f19601f82011682018060405250810190610d0d9190611cd0565b905060065f9054906101000a90046001600160a01b03166001600160a01b0316639265a7d56040518163ffffffff1660e01b81526004015f604051808303815f87803b158015610d5b575f5ffd5b505af1158015610d6d573d5f5f3e3d5ffd5b50505050610d9d825f610aee7f000000000000000000000000000000000000000000000000000000000000000090565b600680546001600160a01b0319166001600160a01b038516179055610de4835f197f0000000000000000000000000000000000000000000000000000000000000000610aee565b8015610e445760065460405163b6b55f2560e01b8152600481018390526001600160a01b039091169063b6b55f25906024015f604051808303815f87803b158015610e2d575f5ffd5b505af1158015610e3f573d5f5f3e3d5ffd5b505050505b826001600160a01b0316826001600160a01b03167fdf69d4ddaf9fd7d35c9293931e2b3f205a06dc3b5b9ca4bef1f1d7c1d420284860405160405180910390a3505050565b5f61072b826001611016565b5f5f610ea083610f43565b905080851115610ec957828582604051633fa733bb60e21b8152600401610b6a93929190611ebf565b5f610ed386610748565b9050610ee233868689856114cb565b95945050505050565b5f5f610ef683610f4c565b905080851115610f1f57828582604051632e52afbb60e21b8152600401610b6a93929190611ebf565b5f610f2986610720565b9050610ee2338686848a6114cb565b5f61072b825f611061565b5f61072b6102ad835b6009545f906001600160a01b0316610f675761072b8261165c565b6009546040516331d0402560e21b81526001600160a01b0384811660048301523060248301529091169063c741009490604401602060405180830381865afa158015610fb5573d5f5f3e3d5ffd5b505050506040513d601f19601f8201168201806040525081019061072b9190611cd0565b610fe1611091565b6001600160a01b03811661100a57604051631e4fbdf760e01b81525f6004820152602401610b6a565b6110138161147a565b50565b5f610843611022610600565b61102d906001611ee0565b6110396003600a611e4d565b6002546110469190611ee0565b85919085611679565b61105c83838360016116bb565b505050565b5f6108436110716003600a611e4d565b60025461107e9190611ee0565b611086610600565b611046906001611ee0565b6005546001600160a01b03163314610ab15760405163118cdaa760e01b8152336004820152602401610b6a565b6001600160a01b038381165f908152600160209081526040808320938616835292905220545f19811015610b5c578181101561111357828183604051637dc7a0d960e11b8152600401610b6a93929190611ebf565b610b5c84848484035f6116bb565b6001600160a01b03831661114a57604051634b637e8f60e11b81525f6004820152602401610b6a565b6001600160a01b0382166111735760405163ec442f0560e01b81525f6004820152602401610b6a565b61105c83838361177f565b600b545f9081906127109061119e90600160501b900461ffff1686611e81565b6111a89190611eac565b9050805f036111ba575f91505061072b565b5f6111c3610600565b90505f6111d08383611ef3565b6111da8685611e81565b6111e49190611eac565b6007549091506111fd906001600160a01b031682611892565b6007546040518281526001600160a01b03909116907fa5c6f7ea9d8aa019e05c1e3ce088187e881ea0b4d0638d10ec14c2f5d3a51d309060200160405180910390a295945050505050565b6112548383835f6118ca565b61105c5761126583835f60016118ca565b61128d57604051635274afe760e01b81526001600160a01b0384166004820152602401610b6a565b61129a83838360016118ca565b61105c57604051635274afe760e01b81526001600160a01b0384166004820152602401610b6a565b6006546001600160a01b03166112eb57604051635048c2af60e11b815260040160405180910390fd5b6009546001600160a01b03166113145760405163dcb530b960e01b815260040160405180910390fd5b6113496001600160a01b037f00000000000000000000000000000000000000000000000000000000000000001685308561192c565b60065460405163b6b55f2560e01b8152600481018490526001600160a01b039091169063b6b55f25906024015f604051808303815f87803b15801561138c575f5ffd5b505af115801561139e573d5f5f3e3d5ffd5b505050506113ac3082611892565b6009546113c49030906001600160a01b03168361104f565b60095460405163ca92a56160e01b81526001600160a01b038581166004830152306024830152604482018490529091169063ca92a561906064015f604051808303815f87803b158015611415575f5ffd5b505af1158015611427573d5f5f3e3d5ffd5b505060408051858152602081018590526001600160a01b038088169450881692507fdcbc1c05240f31ff3ad067ef1ee35ce4997762752e3a095284754544f4c709d791015b60405180910390a350505050565b600580546001600160a01b038381166001600160a01b0319831681179093556040519116919082907f8be0079c531659141344cd1fd0a4f28419497f9722a3daafe3b4186f6b6457e0905f90a35050565b826001600160a01b0316856001600160a01b0316146114ef576114ef8386836110be565b600954604051631a7f2e3560e11b81526001600160a01b03858116600483015230602483015260448201849052909116906334fe5c6a906064015f604051808303815f87803b158015611540575f5ffd5b505af1158015611552573d5f5f3e3d5ffd5b505050506115603082611962565b600654604051632e1a7d4d60e01b8152600481018490526001600160a01b0390911690632e1a7d4d906024015f604051808303815f87803b1580156115a3575f5ffd5b505af11580156115b5573d5f5f3e3d5ffd5b505050506115f584836115e57f000000000000000000000000000000000000000000000000000000000000000090565b6001600160a01b03169190611996565b826001600160a01b0316846001600160a01b0316866001600160a01b03167ffbde797d201c681b91056529119e0b02407c7bb96a4a2c75c01fc9667232c8db858560405161164d929190918252602082015260400190565b60405180910390a45050505050565b6001600160a01b0381165f9081526020819052604081205461072b565b5f6116a6611686836119a3565b80156116a157505f848061169c5761169c611e98565b868809115b151590565b6116b18686866119cf565b610ee29190611ee0565b6001600160a01b0384166116e45760405163e602df0560e01b81525f6004820152602401610b6a565b6001600160a01b03831661170d57604051634a1406b160e11b81525f6004820152602401610b6a565b6001600160a01b038085165f9081526001602090815260408083209387168352929052208290558015610b5c57826001600160a01b0316846001600160a01b03167f8c5be1e5ebec7d5bd14f71427d1e84f3dd0314c0f7b2291e5b200ac8c7c3b9258460405161146c91815260200190565b6001600160a01b0383166117a9578060025f82825461179e9190611ee0565b909155506118069050565b6001600160a01b0383165f90815260208190526040902054818110156117e85783818360405163391434e360e21b8152600401610b6a93929190611ebf565b6001600160a01b0384165f9081526020819052604090209082900390555b6001600160a01b03821661182257600280548290039055611840565b6001600160a01b0382165f9081526020819052604090208054820190555b816001600160a01b0316836001600160a01b03167fddf252ad1be2c89b69c2b068fc378daa952ba7f163c4a11628f55a4df523b3ef8360405161188591815260200190565b60405180910390a3505050565b6001600160a01b0382166118bb5760405163ec442f0560e01b81525f6004820152602401610b6a565b6118c65f838361177f565b5050565b60405163095ea7b360e01b5f8181526001600160a01b038616600452602485905291602083604481808b5af1925060015f51148316611920578383151615611914573d5f823e3d81fd5b5f873b113d1516831692505b60405250949350505050565b61193a848484846001611a7f565b610b5c57604051635274afe760e01b81526001600160a01b0385166004820152602401610b6a565b6001600160a01b03821661198b57604051634b637e8f60e11b81525f6004820152602401610b6a565b6118c6825f8361177f565b61129a8383836001611aec565b5f60028260038111156119b8576119b8611f06565b6119c29190611f1a565b60ff166001149050919050565b5f5f5f6119dc8686611b36565b91509150815f03611a00578381816119f6576119f6611e98565b0492505050610843565b818411611a1757611a176003851502601118611b52565b5f848688095f868103871696879004966002600389028118808a02820302808a02820302808a02820302808a02820302808a02820302808a02909103029181900381900460010185841190960395909502919093039390930492909217029150509392505050565b6040516323b872dd60e01b5f8181526001600160a01b038781166004528616602452604485905291602083606481808c5af1925060015f51148316611adb578383151615611acf573d5f823e3d81fd5b5f883b113d1516831692505b604052505f60605295945050505050565b60405163a9059cbb60e01b5f8181526001600160a01b038616600452602485905291602083604481808b5af1925060015f51148316611920578383151615611914573d5f823e3d81fd5b5f805f1983850993909202808410938190039390930393915050565b634e487b715f52806020526024601cfd5b602081525f82518060208401528060208501604085015e5f604082850101526040601f19601f83011684010191505092915050565b5f60208284031215611ba8575f5ffd5b5035919050565b80356001600160a01b0381168114611bc5575f5ffd5b919050565b5f5f60408385031215611bdb575f5ffd5b611be483611baf565b946020939093013593505050565b5f60208284031215611c02575f5ffd5b61084382611baf565b5f5f5f60608486031215611c1d575f5ffd5b611c2684611baf565b9250611c3460208501611baf565b929592945050506040919091013590565b5f5f60408385031215611c56575f5ffd5b82359150611c6660208401611baf565b90509250929050565b5f5f5f60608486031215611c81575f5ffd5b83359250611c9160208501611baf565b9150611c9f60408501611baf565b90509250925092565b5f5f60408385031215611cb9575f5ffd5b611cc283611baf565b9150611c6660208401611baf565b5f60208284031215611ce0575f5ffd5b5051919050565b600181811c90821680611cfb57607f821691505b602082108103611d1957634e487b7160e01b5f52602260045260245ffd5b50919050565b634e487b7160e01b5f52601160045260245ffd5b60ff818116838216019081111561072b5761072b611d1f565b65ffffffffffff818116838216019081111561072b5761072b611d1f565b6001815b6001841115611da557808504811115611d8957611d89611d1f565b6001841615611d9757908102905b60019390931c928002611d6e565b935093915050565b5f82611dbb5750600161072b565b81611dc757505f61072b565b8160018114611ddd5760028114611de757611e03565b600191505061072b565b60ff841115611df857611df8611d1f565b50506001821b61072b565b5060208310610133831016604e8410600b8410161715611e26575081810a61072b565b611e325f198484611d6a565b805f1904821115611e4557611e45611d1f565b029392505050565b5f61084360ff841683611dad565b8181035f831280158383131683831282161715611e7a57611e7a611d1f565b5092915050565b808202811582820484141761072b5761072b611d1f565b634e487b7160e01b5f52601260045260245ffd5b5f82611eba57611eba611e98565b500490565b6001600160a01b039390931683526020830191909152604082015260600190565b8082018082111561072b5761072b611d1f565b8181038181111561072b5761072b611d1f565b634e487b7160e01b5f52602160045260245ffd5b5f60ff831680611f2c57611f2c611e98565b8060ff8416069150509291505056fea2646970667358221220d8bb151540c01e6319738df9155d0ffcb8d46d6b2bd1f8843bad1a37a6da592964736f6c63430008200033",
  "linkReferences": {},
  "deployedLinkReferences": {},
  "immutableReferences": {
    "1164": [
      {
        "length": 32,
        "start": 892
      },
      {
        "length": 32,
        "start": 2766
      },
      {
        "length": 32,
        "start": 3451
      },
      {
        "length": 32,
        "start": 3520
      },
      {
        "length": 32,
        "start": 4897
      },
      {
        "length": 32,
        "start": 5571
      }
    ],
    "1166": [
      {
        "length": 32,
        "start": 2130
      }
    ]
  },
  "inputSourceName": "project/contracts/HzStable.sol",
  "buildInfoId": "solc-0_8_32-e4e3a4f5da3e9355cd6f14c4cc15bed1b853e712"
}