{
  "_format": "hh3-artifact-1",
  "contractName": "Hazel",
  "sourceName": "contracts/Hazel.sol",
  "abi": [
    {
      "inputs": [
        {
          "internalType": "address",
          "name": "_govStaking",
          "type": "address"
        }
      ],
      "stateMutability": "nonpayable",
      "type": "constructor"
    },
    {
      "inputs": [
        {
          "internalType": "address",
          "name": "spender",
          "type": "address"
        },
        {
          "internalType": "uint256",
          "name": "allowance",
          "type": "uint256"
        },
        {
          "internalType": "uint256",
          "name": "needed",
          "type": "uint256"
        }
      ],
      "name": "ERC20InsufficientAllowance",
      "type": "error"
    },
    {
      "inputs": [
        {
          "internalType": "address",
          "name": "sender",
          "type": "address"
        },
        {
          "internalType": "uint256",
          "name": "balance",
          "type": "uint256"
        },
        {
          "internalType": "uint256",
          "name": "needed",
          "type": "uint256"
        }
      ],
      "name": "ERC20InsufficientBalance",
      "type": "error"
    },
    {
      "inputs": [
        {
          "internalType": "address",
          "name": "approver",
          "type": "address"
        }
      ],
      "name": "ERC20InvalidApprover",
      "type": "error"
    },
    {
      "inputs": [
        {
          "internalType": "address",
          "name": "receiver",
          "type": "address"
        }
      ],
      "name": "ERC20InvalidReceiver",
      "type": "error"
    },
    {
      "inputs": [
        {
          "internalType": "address",
          "name": "sender",
          "type": "address"
        }
      ],
      "name": "ERC20InvalidSender",
      "type": "error"
    },
    {
      "inputs": [
        {
          "internalType": "address",
          "name": "spender",
          "type": "address"
        }
      ],
      "name": "ERC20InvalidSpender",
      "type": "error"
    },
    {
      "inputs": [],
      "name": "EmptyPool",
      "type": "error"
    },
    {
      "inputs": [
        {
          "internalType": "address",
          "name": "owner",
          "type": "address"
        }
      ],
      "name": "OwnableInvalidOwner",
      "type": "error"
    },
    {
      "inputs": [
        {
          "internalType": "address",
          "name": "account",
          "type": "address"
        }
      ],
      "name": "OwnableUnauthorizedAccount",
      "type": "error"
    },
    {
      "inputs": [],
      "name": "RegistryAlreadySet",
      "type": "error"
    },
    {
      "inputs": [
        {
          "internalType": "address",
          "name": "token",
          "type": "address"
        }
      ],
      "name": "SafeERC20FailedOperation",
      "type": "error"
    },
    {
      "inputs": [],
      "name": "UnauthorizedVault",
      "type": "error"
    },
    {
      "inputs": [],
      "name": "VaultRegistryNotSet",
      "type": "error"
    },
    {
      "inputs": [],
      "name": "ZeroAddress",
      "type": "error"
    },
    {
      "inputs": [],
      "name": "ZeroAmount",
      "type": "error"
    },
    {
      "anonymous": false,
      "inputs": [
        {
          "indexed": true,
          "internalType": "address",
          "name": "owner",
          "type": "address"
        },
        {
          "indexed": true,
          "internalType": "address",
          "name": "spender",
          "type": "address"
        },
        {
          "indexed": false,
          "internalType": "uint256",
          "name": "value",
          "type": "uint256"
        }
      ],
      "name": "Approval",
      "type": "event"
    },
    {
      "anonymous": false,
      "inputs": [
        {
          "indexed": true,
          "internalType": "address",
          "name": "previousOwner",
          "type": "address"
        },
        {
          "indexed": true,
          "internalType": "address",
          "name": "newOwner",
          "type": "address"
        }
      ],
      "name": "OwnershipTransferred",
      "type": "event"
    },
    {
      "anonymous": false,
      "inputs": [
        {
          "indexed": true,
          "internalType": "address",
          "name": "user",
          "type": "address"
        },
        {
          "indexed": false,
          "internalType": "uint256",
          "name": "hzlAmount",
          "type": "uint256"
        }
      ],
      "name": "Redeemed",
      "type": "event"
    },
    {
      "anonymous": false,
      "inputs": [
        {
          "indexed": true,
          "internalType": "address",
          "name": "from",
          "type": "address"
        },
        {
          "indexed": true,
          "internalType": "address",
          "name": "to",
          "type": "address"
        },
        {
          "indexed": false,
          "internalType": "uint256",
          "name": "value",
          "type": "uint256"
        }
      ],
      "name": "Transfer",
      "type": "event"
    },
    {
      "anonymous": false,
      "inputs": [
        {
          "indexed": true,
          "internalType": "address",
          "name": "user",
          "type": "address"
        },
        {
          "indexed": false,
          "internalType": "uint256",
          "name": "hzlAmount",
          "type": "uint256"
        }
      ],
      "name": "Unwrapped",
      "type": "event"
    },
    {
      "anonymous": false,
      "inputs": [
        {
          "indexed": true,
          "internalType": "address",
          "name": "user",
          "type": "address"
        },
        {
          "indexed": true,
          "internalType": "address",
          "name": "vault",
          "type": "address"
        },
        {
          "indexed": false,
          "internalType": "uint256",
          "name": "lpAmount",
          "type": "uint256"
        },
        {
          "indexed": false,
          "internalType": "uint256",
          "name": "hzlAmount",
          "type": "uint256"
        }
      ],
      "name": "Wrapped",
      "type": "event"
    },
    {
      "inputs": [
        {
          "internalType": "address",
          "name": "owner",
          "type": "address"
        },
        {
          "internalType": "address",
          "name": "spender",
          "type": "address"
        }
      ],
      "name": "allowance",
      "outputs": [
        {
          "internalType": "uint256",
          "name": "",
          "type": "uint256"
        }
      ],
      "stateMutability": "view",
      "type": "function"
    },
    {
      "inputs": [
        {
          "internalType": "address",
          "name": "spender",
          "type": "address"
        },
        {
          "internalType": "uint256",
          "name": "value",
          "type": "uint256"
        }
      ],
      "name": "approve",
      "outputs": [
        {
          "internalType": "bool",
          "name": "",
          "type": "bool"
        }
      ],
      "stateMutability": "nonpayable",
      "type": "function"
    },
    {
      "inputs": [
        {
          "internalType": "address",
          "name": "account",
          "type": "address"
        }
      ],
      "name": "balanceOf",
      "outputs": [
        {
          "internalType": "uint256",
          "name": "",
          "type": "uint256"
        }
      ],
      "stateMutability": "view",
      "type": "function"
    },
    {
      "inputs": [],
      "name": "decimals",
      "outputs": [
        {
          "internalType": "uint8",
          "name": "",
          "type": "uint8"
        }
      ],
      "stateMutability": "view",
      "type": "function"
    },
    {
      "inputs": [],
      "name": "govStaking",
      "outputs": [
        {
          "internalType": "contract IGovStaking",
          "name": "",
          "type": "address"
        }
      ],
      "stateMutability": "view",
      "type": "function"
    },
    {
      "inputs": [],
      "name": "name",
      "outputs": [
        {
          "internalType": "string",
          "name": "",
          "type": "string"
        }
      ],
      "stateMutability": "view",
      "type": "function"
    },
    {
      "inputs": [],
      "name": "owner",
      "outputs": [
        {
          "internalType": "address",
          "name": "",
          "type": "address"
        }
      ],
      "stateMutability": "view",
      "type": "function"
    },
    {
      "inputs": [
        {
          "internalType": "address",
          "name": "",
          "type": "address"
        }
      ],
      "name": "pool",
      "outputs": [
        {
          "internalType": "uint256",
          "name": "",
          "type": "uint256"
        }
      ],
      "stateMutability": "view",
      "type": "function"
    },
    {
      "inputs": [],
      "name": "poolVaultCount",
      "outputs": [
        {
          "internalType": "uint256",
          "name": "",
          "type": "uint256"
        }
      ],
      "stateMutability": "view",
      "type": "function"
    },
    {
      "inputs": [
        {
          "internalType": "uint256",
          "name": "",
          "type": "uint256"
        }
      ],
      "name": "poolVaults",
      "outputs": [
        {
          "internalType": "address",
          "name": "",
          "type": "address"
        }
      ],
      "stateMutability": "view",
      "type": "function"
    },
    {
      "inputs": [
        {
          "internalType": "uint256",
          "name": "hzlAmount",
          "type": "uint256"
        }
      ],
      "name": "redeem",
      "outputs": [],
      "stateMutability": "nonpayable",
      "type": "function"
    },
    {
      "inputs": [],
      "name": "renounceOwnership",
      "outputs": [],
      "stateMutability": "nonpayable",
      "type": "function"
    },
    {
      "inputs": [
        {
          "internalType": "address",
          "name": "_vaultRegistry",
          "type": "address"
        }
      ],
      "name": "setVaultRegistry",
      "outputs": [],
      "stateMutability": "nonpayable",
      "type": "function"
    },
    {
      "inputs": [],
      "name": "symbol",
      "outputs": [
        {
          "internalType": "string",
          "name": "",
          "type": "string"
        }
      ],
      "stateMutability": "view",
      "type": "function"
    },
    {
      "inputs": [],
      "name": "totalSupply",
      "outputs": [
        {
          "internalType": "uint256",
          "name": "",
          "type": "uint256"
        }
      ],
      "stateMutability": "view",
      "type": "function"
    },
    {
      "inputs": [
        {
          "internalType": "address",
          "name": "to",
          "type": "address"
        },
        {
          "internalType": "uint256",
          "name": "value",
          "type": "uint256"
        }
      ],
      "name": "transfer",
      "outputs": [
        {
          "internalType": "bool",
          "name": "",
          "type": "bool"
        }
      ],
      "stateMutability": "nonpayable",
      "type": "function"
    },
    {
      "inputs": [
        {
          "internalType": "address",
          "name": "from",
          "type": "address"
        },
        {
          "internalType": "address",
          "name": "to",
          "type": "address"
        },
        {
          "internalType": "uint256",
          "name": "value",
          "type": "uint256"
        }
      ],
      "name": "transferFrom",
      "outputs": [
        {
          "internalType": "bool",
          "name": "",
          "type": "bool"
        }
      ],
      "stateMutability": "nonpayable",
      "type": "function"
    },
    {
      "inputs": [
        {
          "internalType": "address",
          "name": "newOwner",
          "type": "address"
        }
      ],
      "name": "transferOwnership",
      "outputs": [],
      "stateMutability": "nonpayable",
      "type": "function"
    },
    {
      "inputs": [
        {
          "internalType": "uint256",
          "name": "hzlAmount",
          "type": "uint256"
        }
      ],
      "name": "unwrap",
      "outputs": [],
      "stateMutability": "nonpayable",
      "type": "function"
    },
    {
      "inputs": [],
      "name": "vaultRegistry",
      "outputs": [
        {
          "internalType": "contract IVaultRegistry",
          "name": "",
          "type": "address"
        }
      ],
      "stateMutability": "view",
      "type": "function"
    },
    {
      "inputs": [
        {
          "internalType": "address",
          "name": "vault",
          "type": "address"
        },
        {
          "internalType": "uint256",
          "name": "lpAmount",
          "type": "uint256"
        }
      ],
      "name": "wrap",
      "outputs": [],
      "stateMutability": "nonpayable",
      "type": "function"
    }
  ],
  "bytecode": "0x608060405234801561000f575f5ffd5b5060405161184138038061184183398101604081905261002e91610174565b336040518060400160405280601681526020017f48617a656c204c69717569642052657374616b696e67000000000000000000008152506040518060400160405280600381526020016212169360ea1b81525081600390816100909190610244565b50600461009d8282610244565b5050506001600160a01b0381166100cd57604051631e4fbdf760e01b81525f600482015260240160405180910390fd5b6100d681610123565b506001600160a01b0381166100fe5760405163d92e233d60e01b815260040160405180910390fd5b600680546001600160a01b0319166001600160a01b0392909216919091179055610302565b600580546001600160a01b038381166001600160a01b0319831681179093556040519116919082907f8be0079c531659141344cd1fd0a4f28419497f9722a3daafe3b4186f6b6457e0905f90a35050565b5f60208284031215610184575f5ffd5b81516001600160a01b038116811461019a575f5ffd5b9392505050565b634e487b7160e01b5f52604160045260245ffd5b600181811c908216806101c957607f821691505b6020821081036101e757634e487b7160e01b5f52602260045260245ffd5b50919050565b601f82111561023f578282111561023f57805f5260205f20601f840160051c602085101561021857505f5b90810190601f840160051c035f5b8181101561023b575f83820155600101610226565b5050505b505050565b81516001600160401b0381111561025d5761025d6101a1565b6102718161026b84546101b5565b846101ed565b6020601f8211600181146102a3575f831561028c5750848201515b5f19600385901b1c1916600184901b1784556102fb565b5f84815260208120601f198516915b828110156102d257878501518255602094850194600190920191016102b2565b50848210156102ef57868401515f19600387901b60f8161c191681555b505060018360011b0184555b5050505050565b6115328061030f5f395ff3fe608060405234801561000f575f5ffd5b5060043610610132575f3560e01c806395d89b41116100b4578063cb91dd7b11610079578063cb91dd7b14610285578063cdd7b38a14610298578063db006a75146102ab578063dd62ed3e146102be578063de0e9a3e146102f6578063f2fde38b14610309575f5ffd5b806395d89b411461023c5780639f82529f14610244578063a9059cbb14610257578063aaedae221461026a578063bf376c7a14610272575f5ffd5b8063313ce567116100fa578063313ce567146101bf57806370a08231146101ce578063715018a6146101f65780637f38ee53146102005780638da5cb5b1461022b575f5ffd5b806306fdde0314610136578063095ea7b314610154578063156522a81461017757806318160ddd146101a457806323b872dd146101ac575b5f5ffd5b61013e61031c565b60405161014b91906112af565b60405180910390f35b6101676101623660046112ff565b6103ac565b604051901515815260200161014b565b610196610185366004611327565b60086020525f908152604090205481565b60405190815260200161014b565b600254610196565b6101676101ba366004611347565b6103c5565b6040516012815260200161014b565b6101966101dc366004611327565b6001600160a01b03165f9081526020819052604090205490565b6101fe6103e8565b005b600654610213906001600160a01b031681565b6040516001600160a01b03909116815260200161014b565b6005546001600160a01b0316610213565b61013e6103fb565b610213610252366004611381565b61040a565b6101676102653660046112ff565b610432565b600954610196565b6101fe6102803660046112ff565b61043f565b6101fe610293366004611327565b61068b565b600754610213906001600160a01b031681565b6101fe6102b9366004611381565b610706565b6101966102cc366004611398565b6001600160a01b039182165f90815260016020908152604080832093909416825291909152205490565b6101fe610304366004611381565b61093c565b6101fe610317366004611327565b610bd5565b60606003805461032b906113c9565b80601f0160208091040260200160405190810160405280929190818152602001828054610357906113c9565b80156103a25780601f10610379576101008083540402835291602001916103a2565b820191905f5260205f20905b81548152906001019060200180831161038557829003601f168201915b5050505050905090565b5f336103b9818585610c17565b60019150505b92915050565b5f336103d2858285610c29565b6103dd858585610ca5565b506001949350505050565b6103f0610d02565b6103f95f610d2f565b565b60606004805461032b906113c9565b60098181548110610419575f80fd5b5f918252602090912001546001600160a01b0316905081565b5f336103b9818585610ca5565b805f0361045f57604051631f2a200560e01b815260040160405180910390fd5b6007546001600160a01b0316610488576040516371c3087d60e01b815260040160405180910390fd5b60075460405163c3c5a54760e01b81526001600160a01b0384811660048301529091169063c3c5a54790602401602060405180830381865afa1580156104d0573d5f5f3e3d5ffd5b505050506040513d601f19601f820116820180604052508101906104f49190611401565b6105115760405163c732d64360e01b815260040160405180910390fd5b5f61051c8383610d80565b6001600160a01b0384165f908152600a602052604090205490915060ff166105a1576009805460018082019092557f6e1540171b6c0c960b71a7020d9f60077f6af931a8bbf590da0223dacf75c7af0180546001600160a01b0319166001600160a01b0386169081179091555f908152600a60205260409020805460ff191690911790555b6001600160a01b0383165f90815260086020526040812080548492906105c8908490611434565b909155506105d890503382610e52565b600654604051630c1e8bf760e01b81523360048201526001600160a01b0385811660248301526044820185905290911690630c1e8bf7906064015f604051808303815f87803b158015610629575f5ffd5b505af115801561063b573d5f5f3e3d5ffd5b505060408051858152602081018590526001600160a01b03871693503392507f9030e93f976e327ab5ef1166d3fe5cfb0820f381770421bbfef5bc656fa1568791015b60405180910390a3505050565b610693610d02565b6007546001600160a01b0316156106bd576040516307a554d960e01b815260040160405180910390fd5b6001600160a01b0381166106e45760405163d92e233d60e01b815260040160405180910390fd5b600780546001600160a01b0319166001600160a01b0392909216919091179055565b805f0361072657604051631f2a200560e01b815260040160405180910390fd5b5f61073060025490565b905061073c3383610e8a565b6009545f905b80821015610900575f6009838154811061075e5761075e611447565b5f9182526020808320909101546001600160a01b031680835260089091526040822054909250859061079190889061145b565b61079b9190611472565b9050805f036107b857836107ae81611491565b9450505050610742565b6001600160a01b0382165f90815260086020526040812080548392906107df9084906114a9565b90915550506001600160a01b0382165f9081526008602052604081205490036108d7576001600160a01b0382165f908152600a60205260409020805460ff19169055600961082e6001856114a9565b8154811061083e5761083e611447565b5f91825260209091200154600980546001600160a01b03909216918690811061086957610869611447565b905f5260205f20015f6101000a8154816001600160a01b0302191690836001600160a01b0316021790555060098054806108a5576108a56114bc565b5f8281526020902081015f1990810180546001600160a01b0319169055019055826108cf816114d0565b9350506108e5565b836108e181611491565b9450505b6108f96001600160a01b0383163383610ebe565b5050610742565b60405184815233907f4896181ff8f4543cc00db9fe9b6fb7e6f032b7eb772c72ab1ec1b4d2e03b9369906020015b60405180910390a250505050565b805f0361095c57604051631f2a200560e01b815260040160405180910390fd5b5f61096660025490565b90506109723383610e8a565b6009545f905b80821015610ba3575f6009838154811061099457610994611447565b5f9182526020808320909101546001600160a01b03168083526008909152604082205490925085906109c790889061145b565b6109d19190611472565b9050805f036109ee57836109e481611491565b9450505050610978565b6001600160a01b0382165f9081526008602052604081208054839290610a159084906114a9565b90915550506001600160a01b0382165f908152600860205260408120549003610b0d576001600160a01b0382165f908152600a60205260409020805460ff191690556009610a646001856114a9565b81548110610a7457610a74611447565b5f91825260209091200154600980546001600160a01b039092169186908110610a9f57610a9f611447565b905f5260205f20015f6101000a8154816001600160a01b0302191690836001600160a01b031602179055506009805480610adb57610adb6114bc565b5f8281526020902081015f1990810180546001600160a01b031916905501905582610b05816114d0565b935050610b1b565b83610b1781611491565b9450505b600654610b35906001600160a01b03848116911683610ef3565b60065460405163ca92a56160e01b81523360048201526001600160a01b038481166024830152604482018490529091169063ca92a561906064015f604051808303815f87803b158015610b86575f5ffd5b505af1158015610b98573d5f5f3e3d5ffd5b505050505050610978565b60405184815233907f95ae649bfaaef9def56a52f4fb2d9e8fa5496bb7082930e442c74cc76b03dcb39060200161092e565b610bdd610d02565b6001600160a01b038116610c0b57604051631e4fbdf760e01b81525f60048201526024015b60405180910390fd5b610c1481610d2f565b50565b610c248383836001610f45565b505050565b6001600160a01b038381165f908152600160209081526040808320938616835292905220545f19811015610c9f5781811015610c9157604051637dc7a0d960e11b81526001600160a01b03841660048201526024810182905260448101839052606401610c02565b610c9f84848484035f610f45565b50505050565b6001600160a01b038316610cce57604051634b637e8f60e11b81525f6004820152602401610c02565b6001600160a01b038216610cf75760405163ec442f0560e01b81525f6004820152602401610c02565b610c24838383611017565b6005546001600160a01b031633146103f95760405163118cdaa760e01b8152336004820152602401610c02565b600580546001600160a01b038381166001600160a01b0319831681179093556040519116919082907f8be0079c531659141344cd1fd0a4f28419497f9722a3daafe3b4186f6b6457e0905f90a35050565b5f5f610d8b60025490565b9050805f03610d9d57829150506103bf565b6040516303d1689d60e11b8152600481018490525f906001600160a01b038616906307a2d13a90602401602060405180830381865afa158015610de2573d5f5f3e3d5ffd5b505050506040513d601f19601f82011682018060405250810190610e0691906114e5565b90505f610e11611130565b9050805f03610e3357604051631107712560e01b815260040160405180910390fd5b80610e3e848461145b565b610e489190611472565b9695505050505050565b6001600160a01b038216610e7b5760405163ec442f0560e01b81525f6004820152602401610c02565b610e865f8383611017565b5050565b6001600160a01b038216610eb357604051634b637e8f60e11b81525f6004820152602401610c02565b610e86825f83611017565b610ecb8383836001611203565b610c2457604051635274afe760e01b81526001600160a01b0384166004820152602401610c02565b610eff8383835f611265565b610c2457610f1083835f6001611265565b610f3857604051635274afe760e01b81526001600160a01b0384166004820152602401610c02565b610ecb8383836001611265565b6001600160a01b038416610f6e5760405163e602df0560e01b81525f6004820152602401610c02565b6001600160a01b038316610f9757604051634a1406b160e11b81525f6004820152602401610c02565b6001600160a01b038085165f9081526001602090815260408083209387168352929052208290558015610c9f57826001600160a01b0316846001600160a01b03167f8c5be1e5ebec7d5bd14f71427d1e84f3dd0314c0f7b2291e5b200ac8c7c3b9258460405161100991815260200190565b60405180910390a350505050565b6001600160a01b038316611041578060025f8282546110369190611434565b909155506110b19050565b6001600160a01b0383165f90815260208190526040902054818110156110935760405163391434e360e21b81526001600160a01b03851660048201526024810182905260448101839052606401610c02565b6001600160a01b0384165f9081526020819052604090209082900390555b6001600160a01b0382166110cd576002805482900390556110eb565b6001600160a01b0382165f9081526020819052604090208054820190555b816001600160a01b0316836001600160a01b03167fddf252ad1be2c89b69c2b068fc378daa952ba7f163c4a11628f55a4df523b3ef8360405161067e91815260200190565b6009545f90815b818110156111fe575f6009828154811061115357611153611447565b5f9182526020808320909101546001600160a01b0316808352600890915260409091205490915080156111f4576040516303d1689d60e11b8152600481018290526001600160a01b038316906307a2d13a90602401602060405180830381865afa1580156111c3573d5f5f3e3d5ffd5b505050506040513d601f19601f820116820180604052508101906111e791906114e5565b6111f19086611434565b94505b5050600101611137565b505090565b60405163a9059cbb60e01b5f8181526001600160a01b038616600452602485905291602083604481808b5af1925060015f5114831661125957838315161561124d573d5f823e3d81fd5b5f873b113d1516831692505b60405250949350505050565b60405163095ea7b360e01b5f8181526001600160a01b038616600452602485905291602083604481808b5af1925060015f5114831661125957838315161561124d573d5f823e3d81fd5b602081525f82518060208401528060208501604085015e5f604082850101526040601f19601f83011684010191505092915050565b80356001600160a01b03811681146112fa575f5ffd5b919050565b5f5f60408385031215611310575f5ffd5b611319836112e4565b946020939093013593505050565b5f60208284031215611337575f5ffd5b611340826112e4565b9392505050565b5f5f5f60608486031215611359575f5ffd5b611362846112e4565b9250611370602085016112e4565b929592945050506040919091013590565b5f60208284031215611391575f5ffd5b5035919050565b5f5f604083850312156113a9575f5ffd5b6113b2836112e4565b91506113c0602084016112e4565b90509250929050565b600181811c908216806113dd57607f821691505b6020821081036113fb57634e487b7160e01b5f52602260045260245ffd5b50919050565b5f60208284031215611411575f5ffd5b81518015158114611340575f5ffd5b634e487b7160e01b5f52601160045260245ffd5b808201808211156103bf576103bf611420565b634e487b7160e01b5f52603260045260245ffd5b80820281158282048414176103bf576103bf611420565b5f8261148c57634e487b7160e01b5f52601260045260245ffd5b500490565b5f600182016114a2576114a2611420565b5060010190565b818103818111156103bf576103bf611420565b634e487b7160e01b5f52603160045260245ffd5b5f816114de576114de611420565b505f190190565b5f602082840312156114f5575f5ffd5b505191905056fea2646970667358221220f6063620280f63b47ea138449611990c33f5d5b3f279fd8e27533f9e2808559d64736f6c63430008200033",
  "linkReferences": {},
  "deployedLinkReferences": {},
  "immutableReferences": {},
  "inputSourceName": "project/contracts/Hazel.sol",
  "buildInfoId": "solc-0_8_32-ad541eb1af4f5e3c73cac5503477677b2c766c4f"
}