{
  "_format": "hh3-artifact-1",
  "contractName": "InsuranceFund",
  "sourceName": "contracts/InsuranceFund.sol",
  "abi": [
    {
      "inputs": [
        {
          "internalType": "address",
          "name": "vault_",
          "type": "address"
        }
      ],
      "stateMutability": "nonpayable",
      "type": "constructor"
    },
    {
      "inputs": [
        {
          "internalType": "address",
          "name": "owner",
          "type": "address"
        }
      ],
      "name": "OwnableInvalidOwner",
      "type": "error"
    },
    {
      "inputs": [
        {
          "internalType": "address",
          "name": "account",
          "type": "address"
        }
      ],
      "name": "OwnableUnauthorizedAccount",
      "type": "error"
    },
    {
      "inputs": [
        {
          "internalType": "address",
          "name": "token",
          "type": "address"
        }
      ],
      "name": "SafeERC20FailedOperation",
      "type": "error"
    },
    {
      "inputs": [],
      "name": "VaultAlreadySet",
      "type": "error"
    },
    {
      "inputs": [],
      "name": "VaultNotSet",
      "type": "error"
    },
    {
      "inputs": [],
      "name": "ZeroAddress",
      "type": "error"
    },
    {
      "anonymous": false,
      "inputs": [
        {
          "indexed": true,
          "internalType": "address",
          "name": "to",
          "type": "address"
        },
        {
          "indexed": false,
          "internalType": "uint256",
          "name": "amount",
          "type": "uint256"
        }
      ],
      "name": "InsurancePayoutExecuted",
      "type": "event"
    },
    {
      "anonymous": false,
      "inputs": [
        {
          "indexed": true,
          "internalType": "address",
          "name": "previousOwner",
          "type": "address"
        },
        {
          "indexed": true,
          "internalType": "address",
          "name": "newOwner",
          "type": "address"
        }
      ],
      "name": "OwnershipTransferred",
      "type": "event"
    },
    {
      "inputs": [],
      "name": "owner",
      "outputs": [
        {
          "internalType": "address",
          "name": "",
          "type": "address"
        }
      ],
      "stateMutability": "view",
      "type": "function"
    },
    {
      "inputs": [
        {
          "internalType": "address",
          "name": "to",
          "type": "address"
        },
        {
          "internalType": "uint256",
          "name": "amount",
          "type": "uint256"
        }
      ],
      "name": "payout",
      "outputs": [],
      "stateMutability": "nonpayable",
      "type": "function"
    },
    {
      "inputs": [],
      "name": "renounceOwnership",
      "outputs": [],
      "stateMutability": "nonpayable",
      "type": "function"
    },
    {
      "inputs": [
        {
          "internalType": "address",
          "name": "vault_",
          "type": "address"
        }
      ],
      "name": "setVault",
      "outputs": [],
      "stateMutability": "nonpayable",
      "type": "function"
    },
    {
      "inputs": [],
      "name": "sharesBalance",
      "outputs": [
        {
          "internalType": "uint256",
          "name": "",
          "type": "uint256"
        }
      ],
      "stateMutability": "view",
      "type": "function"
    },
    {
      "inputs": [
        {
          "internalType": "address",
          "name": "newOwner",
          "type": "address"
        }
      ],
      "name": "transferOwnership",
      "outputs": [],
      "stateMutability": "nonpayable",
      "type": "function"
    },
    {
      "inputs": [],
      "name": "vault",
      "outputs": [
        {
          "internalType": "contract IERC20",
          "name": "",
          "type": "address"
        }
      ],
      "stateMutability": "view",
      "type": "function"
    }
  ],
  "bytecode": "0x608060405234801561000f575f5ffd5b506040516105da3803806105da83398101604081905261002e916100d1565b338061005357604051631e4fbdf760e01b81525f600482015260240160405180910390fd5b61005c81610082565b50600180546001600160a01b0319166001600160a01b03929092169190911790556100fe565b5f80546001600160a01b038381166001600160a01b0319831681178455604051919092169283917f8be0079c531659141344cd1fd0a4f28419497f9722a3daafe3b4186f6b6457e09190a35050565b5f602082840312156100e1575f5ffd5b81516001600160a01b03811681146100f7575f5ffd5b9392505050565b6104cf8061010b5f395ff3fe608060405234801561000f575f5ffd5b506004361061007a575f3560e01c80638da5cb5b116100585780638da5cb5b146100ae578063cd4c35a7146100d7578063f2fde38b146100ed578063fbfa77cf14610100575f5ffd5b8063117de2fd1461007e5780636817031b14610093578063715018a6146100a6575b5f5ffd5b61009161008c36600461043a565b610113565b005b6100916100a1366004610462565b6101c9565b610091610244565b5f546001600160a01b03165b6040516001600160a01b0390911681526020015b60405180910390f35b6100df610257565b6040519081526020016100ce565b6100916100fb366004610462565b6102c6565b6001546100ba906001600160a01b031681565b61011b610308565b6001546001600160a01b031661014457604051630647140b60e51b815260040160405180910390fd5b6001600160a01b03821661016b5760405163d92e233d60e01b815260040160405180910390fd5b600154610182906001600160a01b03168383610334565b816001600160a01b03167f98432b03a095e5096b86a082f5999298b7ed1e00354ed103b35e7d5ddfb8845f826040516101bd91815260200190565b60405180910390a25050565b6101d1610308565b6001546001600160a01b0316156101fb57604051631bb0ddfb60e01b815260040160405180910390fd5b6001600160a01b0381166102225760405163d92e233d60e01b815260040160405180910390fd5b600180546001600160a01b0319166001600160a01b0392909216919091179055565b61024c610308565b6102555f61036e565b565b6001546040516370a0823160e01b81523060048201525f916001600160a01b0316906370a0823190602401602060405180830381865afa15801561029d573d5f5f3e3d5ffd5b505050506040513d601f19601f820116820180604052508101906102c19190610482565b905090565b6102ce610308565b6001600160a01b0381166102fc57604051631e4fbdf760e01b81525f60048201526024015b60405180910390fd5b6103058161036e565b50565b5f546001600160a01b031633146102555760405163118cdaa760e01b81523360048201526024016102f3565b61034183838360016103bd565b61036957604051635274afe760e01b81526001600160a01b03841660048201526024016102f3565b505050565b5f80546001600160a01b038381166001600160a01b0319831681178455604051919092169283917f8be0079c531659141344cd1fd0a4f28419497f9722a3daafe3b4186f6b6457e09190a35050565b60405163a9059cbb60e01b5f8181526001600160a01b038616600452602485905291602083604481808b5af1925060015f51148316610413578383151615610407573d5f823e3d81fd5b5f873b113d1516831692505b60405250949350505050565b80356001600160a01b0381168114610435575f5ffd5b919050565b5f5f6040838503121561044b575f5ffd5b6104548361041f565b946020939093013593505050565b5f60208284031215610472575f5ffd5b61047b8261041f565b9392505050565b5f60208284031215610492575f5ffd5b505191905056fea2646970667358221220365211366d76c6be51e546b9c3fc8b7f39edf77d96758e0fe53a640858a366a864736f6c63430008200033",
  "linkReferences": {},
  "deployedLinkReferences": {},
  "immutableReferences": {},
  "inputSourceName": "project/contracts/InsuranceFund.sol",
  "buildInfoId": "solc-0_8_32-79e27ef4772dccf72fe4130d61ba3833322bb423"
}