{
  "_format": "hh3-artifact-1",
  "contractName": "VaultRegistry",
  "sourceName": "contracts/VaultRegistry.sol",
  "abi": [
    {
      "inputs": [
        {
          "internalType": "uint256",
          "name": "_timelockDuration",
          "type": "uint256"
        }
      ],
      "stateMutability": "nonpayable",
      "type": "constructor"
    },
    {
      "inputs": [],
      "name": "AlreadyQueued",
      "type": "error"
    },
    {
      "inputs": [],
      "name": "AlreadyRegistered",
      "type": "error"
    },
    {
      "inputs": [],
      "name": "MaxVaultsReached",
      "type": "error"
    },
    {
      "inputs": [],
      "name": "NotQueued",
      "type": "error"
    },
    {
      "inputs": [],
      "name": "NotRegistered",
      "type": "error"
    },
    {
      "inputs": [
        {
          "internalType": "address",
          "name": "owner",
          "type": "address"
        }
      ],
      "name": "OwnableInvalidOwner",
      "type": "error"
    },
    {
      "inputs": [
        {
          "internalType": "address",
          "name": "account",
          "type": "address"
        }
      ],
      "name": "OwnableUnauthorizedAccount",
      "type": "error"
    },
    {
      "inputs": [],
      "name": "TimelockActive",
      "type": "error"
    },
    {
      "inputs": [],
      "name": "TimelockTooShort",
      "type": "error"
    },
    {
      "inputs": [],
      "name": "ZeroAddress",
      "type": "error"
    },
    {
      "inputs": [],
      "name": "ZeroAmount",
      "type": "error"
    },
    {
      "anonymous": false,
      "inputs": [
        {
          "indexed": false,
          "internalType": "uint256",
          "name": "oldMax",
          "type": "uint256"
        },
        {
          "indexed": false,
          "internalType": "uint256",
          "name": "newMax",
          "type": "uint256"
        }
      ],
      "name": "MaxVaultsUpdated",
      "type": "event"
    },
    {
      "anonymous": false,
      "inputs": [
        {
          "indexed": true,
          "internalType": "address",
          "name": "previousOwner",
          "type": "address"
        },
        {
          "indexed": true,
          "internalType": "address",
          "name": "newOwner",
          "type": "address"
        }
      ],
      "name": "OwnershipTransferred",
      "type": "event"
    },
    {
      "anonymous": false,
      "inputs": [
        {
          "indexed": false,
          "internalType": "uint256",
          "name": "oldDuration",
          "type": "uint256"
        },
        {
          "indexed": false,
          "internalType": "uint256",
          "name": "newDuration",
          "type": "uint256"
        }
      ],
      "name": "TimelockUpdated",
      "type": "event"
    },
    {
      "anonymous": false,
      "inputs": [
        {
          "indexed": true,
          "internalType": "address",
          "name": "vault",
          "type": "address"
        },
        {
          "indexed": false,
          "internalType": "uint256",
          "name": "enabledAt",
          "type": "uint256"
        }
      ],
      "name": "VaultQueued",
      "type": "event"
    },
    {
      "anonymous": false,
      "inputs": [
        {
          "indexed": true,
          "internalType": "address",
          "name": "vault",
          "type": "address"
        }
      ],
      "name": "VaultRegistered",
      "type": "event"
    },
    {
      "anonymous": false,
      "inputs": [
        {
          "indexed": true,
          "internalType": "address",
          "name": "vault",
          "type": "address"
        }
      ],
      "name": "VaultRemoved",
      "type": "event"
    },
    {
      "inputs": [],
      "name": "getVaults",
      "outputs": [
        {
          "internalType": "address[]",
          "name": "",
          "type": "address[]"
        }
      ],
      "stateMutability": "view",
      "type": "function"
    },
    {
      "inputs": [
        {
          "internalType": "address",
          "name": "",
          "type": "address"
        }
      ],
      "name": "isRegistered",
      "outputs": [
        {
          "internalType": "bool",
          "name": "",
          "type": "bool"
        }
      ],
      "stateMutability": "view",
      "type": "function"
    },
    {
      "inputs": [],
      "name": "maxVaults",
      "outputs": [
        {
          "internalType": "uint8",
          "name": "",
          "type": "uint8"
        }
      ],
      "stateMutability": "view",
      "type": "function"
    },
    {
      "inputs": [],
      "name": "owner",
      "outputs": [
        {
          "internalType": "address",
          "name": "",
          "type": "address"
        }
      ],
      "stateMutability": "view",
      "type": "function"
    },
    {
      "inputs": [
        {
          "internalType": "address",
          "name": "",
          "type": "address"
        }
      ],
      "name": "pendingAt",
      "outputs": [
        {
          "internalType": "uint48",
          "name": "",
          "type": "uint48"
        }
      ],
      "stateMutability": "view",
      "type": "function"
    },
    {
      "inputs": [
        {
          "internalType": "address",
          "name": "vault",
          "type": "address"
        }
      ],
      "name": "queueVault",
      "outputs": [],
      "stateMutability": "nonpayable",
      "type": "function"
    },
    {
      "inputs": [
        {
          "internalType": "address",
          "name": "vault",
          "type": "address"
        }
      ],
      "name": "registerVault",
      "outputs": [],
      "stateMutability": "nonpayable",
      "type": "function"
    },
    {
      "inputs": [
        {
          "internalType": "address",
          "name": "vault",
          "type": "address"
        }
      ],
      "name": "removeVault",
      "outputs": [],
      "stateMutability": "nonpayable",
      "type": "function"
    },
    {
      "inputs": [],
      "name": "renounceOwnership",
      "outputs": [],
      "stateMutability": "nonpayable",
      "type": "function"
    },
    {
      "inputs": [
        {
          "internalType": "uint256",
          "name": "max",
          "type": "uint256"
        }
      ],
      "name": "setMaxVaults",
      "outputs": [],
      "stateMutability": "nonpayable",
      "type": "function"
    },
    {
      "inputs": [
        {
          "internalType": "uint256",
          "name": "duration",
          "type": "uint256"
        }
      ],
      "name": "setTimelockDuration",
      "outputs": [],
      "stateMutability": "nonpayable",
      "type": "function"
    },
    {
      "inputs": [],
      "name": "timelockDuration",
      "outputs": [
        {
          "internalType": "uint32",
          "name": "",
          "type": "uint32"
        }
      ],
      "stateMutability": "view",
      "type": "function"
    },
    {
      "inputs": [
        {
          "internalType": "address",
          "name": "newOwner",
          "type": "address"
        }
      ],
      "name": "transferOwnership",
      "outputs": [],
      "stateMutability": "nonpayable",
      "type": "function"
    },
    {
      "inputs": [],
      "name": "vaultCount",
      "outputs": [
        {
          "internalType": "uint256",
          "name": "",
          "type": "uint256"
        }
      ],
      "stateMutability": "view",
      "type": "function"
    },
    {
      "inputs": [
        {
          "internalType": "uint256",
          "name": "",
          "type": "uint256"
        }
      ],
      "name": "vaults",
      "outputs": [
        {
          "internalType": "address",
          "name": "",
          "type": "address"
        }
      ],
      "stateMutability": "view",
      "type": "function"
    }
  ],
  "bytecode": "0x6080604052348015600e575f5ffd5b50604051610b05380380610b05833981016040819052602b9160ce565b3380604f57604051631e4fbdf760e01b81525f600482015260240160405180910390fd5b605681607f565b506004805463ffffffff9290921664ffffffffff1990921691909117641e0000000017905560e4565b5f80546001600160a01b038381166001600160a01b0319831681178455604051919092169283917f8be0079c531659141344cd1fd0a4f28419497f9722a3daafe3b4186f6b6457e09190a35050565b5f6020828403121560dd575f5ffd5b5051919050565b610a14806100f15f395ff3fe608060405234801561000f575f5ffd5b50600436106100f0575f3560e01c80638c64ea4a11610093578063c3c5a54711610063578063c3c5a547146101fc578063ceb68c231461022e578063f1393ca414610241578063f2fde38b1461027f575f5ffd5b80638c64ea4a146101895780638da5cb5b146101b45780638eea3338146101c4578063a7c6a100146101eb575f5ffd5b806344d00f82116100ce57806344d00f82146101465780634d464b8f1461015b57806367ccd1cb1461016e578063715018a614610181575f5ffd5b8063150fea09146100f45780632bbca157146101095780633b29c42814610133575b5f5ffd5b6101076101023660046108e7565b610292565b005b6004546101199063ffffffff1681565b60405163ffffffff90911681526020015b60405180910390f35b6101076101413660046108e7565b610318565b61014e61039b565b60405161012a91906108fe565b610107610169366004610949565b6103fb565b61010761017c366004610949565b610524565b610107610664565b61019c6101973660046108e7565b610677565b6040516001600160a01b03909116815260200161012a565b5f546001600160a01b031661019c565b6004546101d990640100000000900460ff1681565b60405160ff909116815260200161012a565b60035460405190815260200161012a565b61021e61020a366004610949565b60016020525f908152604090205460ff1681565b604051901515815260200161012a565b61010761023c366004610949565b61069f565b61026861024f366004610949565b60026020525f908152604090205465ffffffffffff1681565b60405165ffffffffffff909116815260200161012a565b61010761028d366004610949565b61082a565b61029a61086c565b610e108110156102bd576040516301ded1a560e41b815260040160405180910390fd5b6004805463ffffffff83811663ffffffff19831617909255604080519290911680835260208301849052917f3e9cac94b7c7db9b86df56321e6f7e3e88a6c87fc15fd825df1492cf69e3355191015b60405180910390a15050565b61032061086c565b805f0361034057604051631f2a200560e01b815260040160405180910390fd5b6004805460ff83811664010000000090810264ff000000001984161790935560408051939092041680835260208301849052917f3de04029e45a21007854ad31cb280195e892ac03a28b92d0124cd5518ea22a91910161030c565b606060038054806020026020016040519081016040528092919081815260200182805480156103f157602002820191905f5260205f20905b81546001600160a01b031681526001909101906020018083116103d3575b5050505050905090565b61040361086c565b6001600160a01b03811661042a5760405163d92e233d60e01b815260040160405180910390fd5b6001600160a01b0381165f9081526001602052604090205460ff161561046357604051630ea075bf60e21b815260040160405180910390fd5b6001600160a01b0381165f9081526002602052604090205465ffffffffffff16156104a157604051632fc2a3e160e11b815260040160405180910390fd5b6004545f906104b69063ffffffff164261098a565b6001600160a01b0383165f81815260026020908152604091829020805465ffffffffffff191665ffffffffffff8616908117909155915191825292935090917ffa9d9e526eba4a1415fa3eee6629cf6a5018b89a028715e989896b2fc3a9d257910160405180910390a25050565b61052c61086c565b60045460035464010000000090910460ff161161055c576040516378a2172360e01b815260040160405180910390fd5b6001600160a01b0381165f9081526002602052604081205465ffffffffffff169081900361059d5760405163ccbc0d7160e01b815260040160405180910390fd5b8065ffffffffffff164210156105c657604051637d857b6760e01b815260040160405180910390fd5b6001600160a01b0382165f818152600160208181526040808420805460ff1916841790556003805493840190557fc2575a0e9e593c00f959f8c92f12db2869c3395a3b0502d05e2516446f71f85b90920180546001600160a01b0319168517905560029052808220805465ffffffffffff19169055517f8e0930709528779f1112249aac8fcca15dbb9c595db31092c7bc7f954b5679339190a25050565b61066c61086c565b6106755f610898565b565b60038181548110610686575f80fd5b5f918252602090912001546001600160a01b0316905081565b6106a761086c565b6001600160a01b0381165f9081526001602052604090205460ff166106df5760405163aba4733960e01b815260040160405180910390fd5b6001600160a01b0381165f908152600160205260408120805460ff19169055600354905b818110156107f257826001600160a01b031660038281548110610728576107286109a3565b5f918252602090912001546001600160a01b0316036107ea57600361074e6001846109b7565b8154811061075e5761075e6109a3565b5f91825260209091200154600380546001600160a01b039092169183908110610789576107896109a3565b905f5260205f20015f6101000a8154816001600160a01b0302191690836001600160a01b0316021790555060038054806107c5576107c56109ca565b5f8281526020902081015f1990810180546001600160a01b03191690550190556107f2565b600101610703565b506040516001600160a01b038316907fe71f3a50e5ad81964f352c411f1d45e35438ecd1acecef59ac81d9fbbf6cbc0a905f90a25050565b61083261086c565b6001600160a01b03811661086057604051631e4fbdf760e01b81525f60048201526024015b60405180910390fd5b61086981610898565b50565b5f546001600160a01b031633146106755760405163118cdaa760e01b8152336004820152602401610857565b5f80546001600160a01b038381166001600160a01b0319831681178455604051919092169283917f8be0079c531659141344cd1fd0a4f28419497f9722a3daafe3b4186f6b6457e09190a35050565b5f602082840312156108f7575f5ffd5b5035919050565b602080825282518282018190525f918401906040840190835b8181101561093e5783516001600160a01b0316835260209384019390920191600101610917565b509095945050505050565b5f60208284031215610959575f5ffd5b81356001600160a01b038116811461096f575f5ffd5b9392505050565b634e487b7160e01b5f52601160045260245ffd5b8082018082111561099d5761099d610976565b92915050565b634e487b7160e01b5f52603260045260245ffd5b8181038181111561099d5761099d610976565b634e487b7160e01b5f52603160045260245ffdfea2646970667358221220c471c0c8a4d28cb8e813db12a2c3b86dbd440e58db2742de3cae1d2e5bf5785e64736f6c63430008200033",
  "linkReferences": {},
  "deployedLinkReferences": {},
  "immutableReferences": {},
  "inputSourceName": "project/contracts/VaultRegistry.sol",
  "buildInfoId": "solc-0_8_32-046528273a0f5d1424dd9d8256f30ea48e5c5364"
}