{
  "_format": "hh3-artifact-1",
  "contractName": "GovStaking",
  "sourceName": "contracts/GovStaking.sol",
  "abi": [
    {
      "inputs": [],
      "stateMutability": "nonpayable",
      "type": "constructor"
    },
    {
      "inputs": [],
      "name": "HZLAlreadySet",
      "type": "error"
    },
    {
      "inputs": [],
      "name": "InsufficientStaked",
      "type": "error"
    },
    {
      "inputs": [],
      "name": "InvalidAmount",
      "type": "error"
    },
    {
      "inputs": [],
      "name": "OnlyHZL",
      "type": "error"
    },
    {
      "inputs": [],
      "name": "OnlyVault",
      "type": "error"
    },
    {
      "inputs": [
        {
          "internalType": "address",
          "name": "owner",
          "type": "address"
        }
      ],
      "name": "OwnableInvalidOwner",
      "type": "error"
    },
    {
      "inputs": [
        {
          "internalType": "address",
          "name": "account",
          "type": "address"
        }
      ],
      "name": "OwnableUnauthorizedAccount",
      "type": "error"
    },
    {
      "inputs": [],
      "name": "RegistryAlreadySet",
      "type": "error"
    },
    {
      "inputs": [
        {
          "internalType": "address",
          "name": "token",
          "type": "address"
        }
      ],
      "name": "SafeERC20FailedOperation",
      "type": "error"
    },
    {
      "inputs": [],
      "name": "Unauthorized",
      "type": "error"
    },
    {
      "inputs": [],
      "name": "UnauthorizedVault",
      "type": "error"
    },
    {
      "inputs": [],
      "name": "VaultRegistryNotSet",
      "type": "error"
    },
    {
      "inputs": [],
      "name": "ZeroAddress",
      "type": "error"
    },
    {
      "inputs": [],
      "name": "ZeroAmount",
      "type": "error"
    },
    {
      "anonymous": false,
      "inputs": [
        {
          "indexed": true,
          "internalType": "address",
          "name": "previousOwner",
          "type": "address"
        },
        {
          "indexed": true,
          "internalType": "address",
          "name": "newOwner",
          "type": "address"
        }
      ],
      "name": "OwnershipTransferred",
      "type": "event"
    },
    {
      "anonymous": false,
      "inputs": [
        {
          "indexed": true,
          "internalType": "address",
          "name": "user",
          "type": "address"
        },
        {
          "indexed": true,
          "internalType": "address",
          "name": "vault",
          "type": "address"
        },
        {
          "indexed": false,
          "internalType": "uint256",
          "name": "amount",
          "type": "uint256"
        }
      ],
      "name": "StakeWithdrawn",
      "type": "event"
    },
    {
      "anonymous": false,
      "inputs": [
        {
          "indexed": true,
          "internalType": "address",
          "name": "user",
          "type": "address"
        },
        {
          "indexed": true,
          "internalType": "address",
          "name": "vault",
          "type": "address"
        },
        {
          "indexed": false,
          "internalType": "uint256",
          "name": "amount",
          "type": "uint256"
        }
      ],
      "name": "Staked",
      "type": "event"
    },
    {
      "anonymous": false,
      "inputs": [
        {
          "indexed": true,
          "internalType": "address",
          "name": "user",
          "type": "address"
        },
        {
          "indexed": true,
          "internalType": "address",
          "name": "vault",
          "type": "address"
        },
        {
          "indexed": false,
          "internalType": "uint256",
          "name": "amount",
          "type": "uint256"
        }
      ],
      "name": "Unstaked",
      "type": "event"
    },
    {
      "inputs": [
        {
          "internalType": "address",
          "name": "user",
          "type": "address"
        },
        {
          "internalType": "address",
          "name": "vault",
          "type": "address"
        }
      ],
      "name": "getVotingPower",
      "outputs": [
        {
          "internalType": "uint256",
          "name": "",
          "type": "uint256"
        }
      ],
      "stateMutability": "view",
      "type": "function"
    },
    {
      "inputs": [],
      "name": "hzl",
      "outputs": [
        {
          "internalType": "address",
          "name": "",
          "type": "address"
        }
      ],
      "stateMutability": "view",
      "type": "function"
    },
    {
      "inputs": [],
      "name": "owner",
      "outputs": [
        {
          "internalType": "address",
          "name": "",
          "type": "address"
        }
      ],
      "stateMutability": "view",
      "type": "function"
    },
    {
      "inputs": [],
      "name": "renounceOwnership",
      "outputs": [],
      "stateMutability": "nonpayable",
      "type": "function"
    },
    {
      "inputs": [
        {
          "internalType": "address",
          "name": "_hzl",
          "type": "address"
        }
      ],
      "name": "setHZL",
      "outputs": [],
      "stateMutability": "nonpayable",
      "type": "function"
    },
    {
      "inputs": [
        {
          "internalType": "address",
          "name": "_vaultRegistry",
          "type": "address"
        }
      ],
      "name": "setVaultRegistry",
      "outputs": [],
      "stateMutability": "nonpayable",
      "type": "function"
    },
    {
      "inputs": [
        {
          "internalType": "address",
          "name": "vault",
          "type": "address"
        },
        {
          "internalType": "uint256",
          "name": "amount",
          "type": "uint256"
        }
      ],
      "name": "stake",
      "outputs": [],
      "stateMutability": "nonpayable",
      "type": "function"
    },
    {
      "inputs": [
        {
          "internalType": "address",
          "name": "user",
          "type": "address"
        },
        {
          "internalType": "address",
          "name": "vault",
          "type": "address"
        },
        {
          "internalType": "uint256",
          "name": "amount",
          "type": "uint256"
        }
      ],
      "name": "stakeOnBehalf",
      "outputs": [],
      "stateMutability": "nonpayable",
      "type": "function"
    },
    {
      "inputs": [
        {
          "internalType": "address",
          "name": "user",
          "type": "address"
        },
        {
          "internalType": "address",
          "name": "vault",
          "type": "address"
        }
      ],
      "name": "stakedAmountOf",
      "outputs": [
        {
          "internalType": "uint256",
          "name": "",
          "type": "uint256"
        }
      ],
      "stateMutability": "view",
      "type": "function"
    },
    {
      "inputs": [
        {
          "internalType": "address",
          "name": "",
          "type": "address"
        },
        {
          "internalType": "address",
          "name": "",
          "type": "address"
        }
      ],
      "name": "stakes",
      "outputs": [
        {
          "internalType": "uint200",
          "name": "stakedAmount",
          "type": "uint200"
        },
        {
          "internalType": "uint56",
          "name": "weightedTimestamp",
          "type": "uint56"
        }
      ],
      "stateMutability": "view",
      "type": "function"
    },
    {
      "inputs": [
        {
          "internalType": "address",
          "name": "newOwner",
          "type": "address"
        }
      ],
      "name": "transferOwnership",
      "outputs": [],
      "stateMutability": "nonpayable",
      "type": "function"
    },
    {
      "inputs": [
        {
          "internalType": "address",
          "name": "vault",
          "type": "address"
        },
        {
          "internalType": "uint256",
          "name": "amount",
          "type": "uint256"
        }
      ],
      "name": "unstake",
      "outputs": [],
      "stateMutability": "nonpayable",
      "type": "function"
    },
    {
      "inputs": [
        {
          "internalType": "address",
          "name": "user",
          "type": "address"
        },
        {
          "internalType": "address",
          "name": "vault",
          "type": "address"
        },
        {
          "internalType": "uint256",
          "name": "amount",
          "type": "uint256"
        }
      ],
      "name": "unstakeOnBehalf",
      "outputs": [],
      "stateMutability": "nonpayable",
      "type": "function"
    },
    {
      "inputs": [],
      "name": "vaultRegistry",
      "outputs": [
        {
          "internalType": "contract IVaultRegistry",
          "name": "",
          "type": "address"
        }
      ],
      "stateMutability": "view",
      "type": "function"
    },
    {
      "inputs": [
        {
          "internalType": "address",
          "name": "user",
          "type": "address"
        },
        {
          "internalType": "address",
          "name": "vault",
          "type": "address"
        },
        {
          "internalType": "uint256",
          "name": "amount",
          "type": "uint256"
        }
      ],
      "name": "withdrawStake",
      "outputs": [],
      "stateMutability": "nonpayable",
      "type": "function"
    }
  ],
  "bytecode": "0x6080604052348015600e575f5ffd5b503380603357604051631e4fbdf760e01b81525f600482015260240160405180910390fd5b603a81603f565b50608e565b5f80546001600160a01b038381166001600160a01b0319831681178455604051919092169283917f8be0079c531659141344cd1fd0a4f28419497f9722a3daafe3b4186f6b6457e09190a35050565b610f448061009b5f395ff3fe608060405234801561000f575f5ffd5b50600436106100f0575f3560e01c8063adc9772e11610093578063cb91dd7b11610063578063cb91dd7b14610267578063cdd7b38a1461027a578063f2fde38b1461028d578063f4fea5a0146102a0575f5ffd5b8063adc9772e146101ed578063c2a672e014610200578063c741009414610213578063ca92a56114610254575f5ffd5b8063715018a6116100ce578063715018a61461012f5780638da5cb5b14610137578063a4e47b6614610160578063a60b1145146101cc575f5ffd5b80630c1e8bf7146100f457806334fe5c6a1461010957806335ea727a1461011c575b5f5ffd5b610107610102366004610dad565b6102b3565b005b610107610117366004610dad565b6103d9565b61010761012a366004610de7565b6104f4565b61010761056f565b5f546001600160a01b03165b6040516001600160a01b0390911681526020015b60405180910390f35b6101a561016e366004610e07565b600160209081525f92835260408084209091529082529020546001600160c81b03811690600160c81b900466ffffffffffffff1682565b604080516001600160c81b03909316835266ffffffffffffff909116602083015201610157565b6101df6101da366004610e07565b610582565b604051908152602001610157565b6101076101fb366004610e38565b61061e565b61010761020e366004610e38565b610754565b6101df610221366004610e07565b6001600160a01b039182165f9081526001602090815260408083209390941682529190915220546001600160c81b031690565b610107610262366004610dad565b61084e565b610107610275366004610de7565b6109c6565b600354610143906001600160a01b031681565b61010761029b366004610de7565b610a41565b600254610143906001600160a01b031681565b6002546001600160a01b031633146102de5760405163665d322d60e11b815260040160405180910390fd5b6001600160a01b038084165f90815260016020908152604080832093861683529290522080546001600160c81b031682111561032d57604051632360e66f60e21b815260040160405180910390fd5b8054829082905f906103499084906001600160c81b0316610e74565b82546001600160c81b039182166101009390930a928302919092021990911617905550600254610386906001600160a01b03858116911684610a83565b826001600160a01b0316846001600160a01b03167fb7c918e0e249f999e965cafeb6c664271b3f4317d296461500e71da39f0cbda3846040516103cb91815260200190565b60405180910390a350505050565b336001600160a01b0383161461040257604051638d1af8bd60e01b815260040160405180910390fd5b6001600160a01b038084165f90815260016020908152604080832093861683529290522080546001600160c81b031682111561045157604051632360e66f60e21b815260040160405180910390fd5b8054829082905f9061046d9084906001600160c81b0316610e74565b92506101000a8154816001600160c81b0302191690836001600160c81b031602179055506104af8383856001600160a01b0316610a839092919063ffffffff16565b826001600160a01b0316846001600160a01b03167fd8654fcc8cf5b36d30b3f5e4688fc78118e6d68de60b9994e09902268b57c3e3846040516103cb91815260200190565b6104fc610abd565b6002546001600160a01b0316156105265760405163568fd05b60e01b815260040160405180910390fd5b6001600160a01b03811661054d5760405163d92e233d60e01b815260040160405180910390fd5b600280546001600160a01b0319166001600160a01b0392909216919091179055565b610577610abd565b6105805f610ae9565b565b6001600160a01b038083165f908152600160209081526040808320938516835292905290812080546001600160c81b031682036105c2575f915050610618565b80545f906105e090600160c81b900466ffffffffffffff1642610e93565b90505f6105ec82610b38565b83549091506064906106089083906001600160c81b0316610ea6565b6106129190610ebd565b93505050505b92915050565b6003546001600160a01b0316610647576040516371c3087d60e01b815260040160405180910390fd5b60035460405163c3c5a54760e01b81526001600160a01b0384811660048301529091169063c3c5a54790602401602060405180830381865afa15801561068f573d5f5f3e3d5ffd5b505050506040513d601f19601f820116820180604052508101906106b39190610edc565b6106d05760405163c732d64360e01b815260040160405180910390fd5b805f036106f057604051631f2a200560e01b815260040160405180910390fd5b6106fb338383610b8a565b6107106001600160a01b038316333084610c87565b6040518181526001600160a01b0383169033907f5dac0c1b1112564a045ba943c9d50270893e8e826c49be8e7073adc713ab7bd79060200160405180910390a35050565b335f9081526001602090815260408083206001600160a01b0386168452909152902081158061078c575080546001600160c81b031682115b156107aa5760405163162908e360e11b815260040160405180910390fd5b8054829082905f906107c69084906001600160c81b0316610e74565b92506101000a8154816001600160c81b0302191690836001600160c81b031602179055506108083383856001600160a01b0316610a839092919063ffffffff16565b6040518281526001600160a01b0384169033907fd8654fcc8cf5b36d30b3f5e4688fc78118e6d68de60b9994e09902268b57c3e3906020015b60405180910390a3505050565b336001600160a01b0383161480159061087257506002546001600160a01b03163314155b1561088f576040516282b42960e81b815260040160405180910390fd5b6003546001600160a01b03166108b8576040516371c3087d60e01b815260040160405180910390fd5b60035460405163c3c5a54760e01b81526001600160a01b0384811660048301529091169063c3c5a54790602401602060405180830381865afa158015610900573d5f5f3e3d5ffd5b505050506040513d601f19601f820116820180604052508101906109249190610edc565b6109415760405163c732d64360e01b815260040160405180910390fd5b805f0361096157604051631f2a200560e01b815260040160405180910390fd5b61096c838383610b8a565b6109816001600160a01b038316333084610c87565b816001600160a01b0316836001600160a01b03167f5dac0c1b1112564a045ba943c9d50270893e8e826c49be8e7073adc713ab7bd78360405161084191815260200190565b6109ce610abd565b6003546001600160a01b0316156109f8576040516307a554d960e01b815260040160405180910390fd5b6001600160a01b038116610a1f5760405163d92e233d60e01b815260040160405180910390fd5b600380546001600160a01b0319166001600160a01b0392909216919091179055565b610a49610abd565b6001600160a01b038116610a7757604051631e4fbdf760e01b81525f60048201526024015b60405180910390fd5b610a8081610ae9565b50565b610a908383836001610cc3565b610ab857604051635274afe760e01b81526001600160a01b0384166004820152602401610a6e565b505050565b5f546001600160a01b031633146105805760405163118cdaa760e01b8152336004820152602401610a6e565b5f80546001600160a01b038381166001600160a01b0319831681178455604051919092169283917f8be0079c531659141344cd1fd0a4f28419497f9722a3daafe3b4186f6b6457e09190a35050565b5f6301e133808210610b4c575060fa919050565b62ed4e008210610b5e575060c8919050565b6276a7008210610b7057506096919050565b62278d008210610b825750607d919050565b506064919050565b6001600160a01b038084165f90815260016020908152604080832093861683529290529081208054909190610bc99084906001600160c81b0316610efb565b82549091506001600160c81b031615610c485780610be78442610ea6565b8354610c0d906001600160c81b03811690600160c81b900466ffffffffffffff16610ea6565b610c179190610efb565b610c219190610ebd565b825466ffffffffffffff91909116600160c81b026001600160c81b03909116178255610c67565b81546001600160c81b0316600160c81b4266ffffffffffffff16021782555b81546001600160c81b0319166001600160c81b0391909116179055505050565b610c95848484846001610d25565b610cbd57604051635274afe760e01b81526001600160a01b0385166004820152602401610a6e565b50505050565b60405163a9059cbb60e01b5f8181526001600160a01b038616600452602485905291602083604481808b5af1925060015f51148316610d19578383151615610d0d573d5f823e3d81fd5b5f873b113d1516831692505b60405250949350505050565b6040516323b872dd60e01b5f8181526001600160a01b038781166004528616602452604485905291602083606481808c5af1925060015f51148316610d81578383151615610d75573d5f823e3d81fd5b5f883b113d1516831692505b604052505f60605295945050505050565b80356001600160a01b0381168114610da8575f5ffd5b919050565b5f5f5f60608486031215610dbf575f5ffd5b610dc884610d92565b9250610dd660208501610d92565b929592945050506040919091013590565b5f60208284031215610df7575f5ffd5b610e0082610d92565b9392505050565b5f5f60408385031215610e18575f5ffd5b610e2183610d92565b9150610e2f60208401610d92565b90509250929050565b5f5f60408385031215610e49575f5ffd5b610e5283610d92565b946020939093013593505050565b634e487b7160e01b5f52601160045260245ffd5b6001600160c81b03828116828216039081111561061857610618610e60565b8181038181111561061857610618610e60565b808202811582820484141761061857610618610e60565b5f82610ed757634e487b7160e01b5f52601260045260245ffd5b500490565b5f60208284031215610eec575f5ffd5b81518015158114610e00575f5ffd5b8082018082111561061857610618610e6056fea2646970667358221220cdb91ecc67c10a5785930f2608aeb1952e1360f1d216bbb43ec7bb66f27dff4864736f6c63430008200033",
  "linkReferences": {},
  "deployedLinkReferences": {},
  "immutableReferences": {},
  "inputSourceName": "project/contracts/GovStaking.sol",
  "buildInfoId": "solc-0_8_32-5ef0a8230ed9b57c0d79de82930e9783a4ff8d42"
}