{
  "_format": "hh3-artifact-1",
  "contractName": "RevenueDistributor",
  "sourceName": "contracts/RevenueDistributor.sol",
  "abi": [
    {
      "inputs": [
        {
          "internalType": "address",
          "name": "_treasury",
          "type": "address"
        },
        {
          "internalType": "address",
          "name": "_insuranceFund",
          "type": "address"
        }
      ],
      "stateMutability": "nonpayable",
      "type": "constructor"
    },
    {
      "inputs": [],
      "name": "AlreadyAdded",
      "type": "error"
    },
    {
      "inputs": [],
      "name": "IndexOutOfBounds",
      "type": "error"
    },
    {
      "inputs": [],
      "name": "LengthMismatch",
      "type": "error"
    },
    {
      "inputs": [],
      "name": "MaxAssociationsReached",
      "type": "error"
    },
    {
      "inputs": [],
      "name": "NotFound",
      "type": "error"
    },
    {
      "inputs": [],
      "name": "NothingToClaim",
      "type": "error"
    },
    {
      "inputs": [],
      "name": "NothingToDistribute",
      "type": "error"
    },
    {
      "inputs": [
        {
          "internalType": "address",
          "name": "owner",
          "type": "address"
        }
      ],
      "name": "OwnableInvalidOwner",
      "type": "error"
    },
    {
      "inputs": [
        {
          "internalType": "address",
          "name": "account",
          "type": "address"
        }
      ],
      "name": "OwnableUnauthorizedAccount",
      "type": "error"
    },
    {
      "inputs": [
        {
          "internalType": "address",
          "name": "token",
          "type": "address"
        }
      ],
      "name": "SafeERC20FailedOperation",
      "type": "error"
    },
    {
      "inputs": [],
      "name": "SharesExceedBasisPoints",
      "type": "error"
    },
    {
      "inputs": [],
      "name": "WeightNotZero",
      "type": "error"
    },
    {
      "inputs": [],
      "name": "WeightsSumMismatch",
      "type": "error"
    },
    {
      "inputs": [],
      "name": "ZeroAddress",
      "type": "error"
    },
    {
      "inputs": [],
      "name": "ZeroAmount",
      "type": "error"
    },
    {
      "anonymous": false,
      "inputs": [
        {
          "indexed": true,
          "internalType": "address",
          "name": "addr",
          "type": "address"
        },
        {
          "indexed": false,
          "internalType": "string",
          "name": "name",
          "type": "string"
        }
      ],
      "name": "AssociationAdded",
      "type": "event"
    },
    {
      "anonymous": false,
      "inputs": [
        {
          "indexed": true,
          "internalType": "address",
          "name": "addr",
          "type": "address"
        }
      ],
      "name": "AssociationRemoved",
      "type": "event"
    },
    {
      "anonymous": false,
      "inputs": [],
      "name": "AssociationsUpdated",
      "type": "event"
    },
    {
      "anonymous": false,
      "inputs": [
        {
          "indexed": true,
          "internalType": "address",
          "name": "previousOwner",
          "type": "address"
        },
        {
          "indexed": true,
          "internalType": "address",
          "name": "newOwner",
          "type": "address"
        }
      ],
      "name": "OwnershipTransferred",
      "type": "event"
    },
    {
      "anonymous": false,
      "inputs": [
        {
          "indexed": true,
          "internalType": "address",
          "name": "vault",
          "type": "address"
        },
        {
          "indexed": false,
          "internalType": "uint256",
          "name": "totalShares",
          "type": "uint256"
        },
        {
          "indexed": false,
          "internalType": "uint256",
          "name": "toTreasury",
          "type": "uint256"
        },
        {
          "indexed": false,
          "internalType": "uint256",
          "name": "toAssociations",
          "type": "uint256"
        },
        {
          "indexed": false,
          "internalType": "uint256",
          "name": "toInsurance",
          "type": "uint256"
        }
      ],
      "name": "RevenueDistributed",
      "type": "event"
    },
    {
      "anonymous": false,
      "inputs": [
        {
          "indexed": true,
          "internalType": "address",
          "name": "vault",
          "type": "address"
        },
        {
          "indexed": false,
          "internalType": "uint256",
          "name": "amount",
          "type": "uint256"
        },
        {
          "indexed": true,
          "internalType": "address",
          "name": "treasuryAddress",
          "type": "address"
        }
      ],
      "name": "TreasuryClaimed",
      "type": "event"
    },
    {
      "anonymous": false,
      "inputs": [
        {
          "indexed": true,
          "internalType": "address",
          "name": "oldTreasury",
          "type": "address"
        },
        {
          "indexed": true,
          "internalType": "address",
          "name": "newTreasury",
          "type": "address"
        }
      ],
      "name": "TreasuryUpdated",
      "type": "event"
    },
    {
      "anonymous": false,
      "inputs": [
        {
          "indexed": true,
          "internalType": "address",
          "name": "vault",
          "type": "address"
        }
      ],
      "name": "VaultAdded",
      "type": "event"
    },
    {
      "anonymous": false,
      "inputs": [
        {
          "indexed": true,
          "internalType": "address",
          "name": "vault",
          "type": "address"
        }
      ],
      "name": "VaultRemoved",
      "type": "event"
    },
    {
      "inputs": [
        {
          "internalType": "address",
          "name": "addr",
          "type": "address"
        },
        {
          "internalType": "string",
          "name": "name",
          "type": "string"
        }
      ],
      "name": "addAssociation",
      "outputs": [],
      "stateMutability": "nonpayable",
      "type": "function"
    },
    {
      "inputs": [
        {
          "internalType": "address",
          "name": "_vault",
          "type": "address"
        }
      ],
      "name": "addVault",
      "outputs": [],
      "stateMutability": "nonpayable",
      "type": "function"
    },
    {
      "inputs": [],
      "name": "associationCount",
      "outputs": [
        {
          "internalType": "uint256",
          "name": "",
          "type": "uint256"
        }
      ],
      "stateMutability": "view",
      "type": "function"
    },
    {
      "inputs": [],
      "name": "associationWeight",
      "outputs": [
        {
          "internalType": "uint16",
          "name": "",
          "type": "uint16"
        }
      ],
      "stateMutability": "view",
      "type": "function"
    },
    {
      "inputs": [
        {
          "internalType": "uint256",
          "name": "",
          "type": "uint256"
        }
      ],
      "name": "associations",
      "outputs": [
        {
          "internalType": "address",
          "name": "addr",
          "type": "address"
        },
        {
          "internalType": "uint16",
          "name": "weight",
          "type": "uint16"
        }
      ],
      "stateMutability": "view",
      "type": "function"
    },
    {
      "inputs": [],
      "name": "claim",
      "outputs": [],
      "stateMutability": "nonpayable",
      "type": "function"
    },
    {
      "inputs": [],
      "name": "distribute",
      "outputs": [],
      "stateMutability": "nonpayable",
      "type": "function"
    },
    {
      "inputs": [],
      "name": "insuranceFund",
      "outputs": [
        {
          "internalType": "address",
          "name": "",
          "type": "address"
        }
      ],
      "stateMutability": "view",
      "type": "function"
    },
    {
      "inputs": [],
      "name": "insuranceWeight",
      "outputs": [
        {
          "internalType": "uint16",
          "name": "",
          "type": "uint16"
        }
      ],
      "stateMutability": "view",
      "type": "function"
    },
    {
      "inputs": [],
      "name": "maxAssociations",
      "outputs": [
        {
          "internalType": "uint8",
          "name": "",
          "type": "uint8"
        }
      ],
      "stateMutability": "view",
      "type": "function"
    },
    {
      "inputs": [],
      "name": "owner",
      "outputs": [
        {
          "internalType": "address",
          "name": "",
          "type": "address"
        }
      ],
      "stateMutability": "view",
      "type": "function"
    },
    {
      "inputs": [
        {
          "internalType": "uint256",
          "name": "index",
          "type": "uint256"
        }
      ],
      "name": "removeAssociation",
      "outputs": [],
      "stateMutability": "nonpayable",
      "type": "function"
    },
    {
      "inputs": [
        {
          "internalType": "address",
          "name": "_vault",
          "type": "address"
        }
      ],
      "name": "removeVault",
      "outputs": [],
      "stateMutability": "nonpayable",
      "type": "function"
    },
    {
      "inputs": [],
      "name": "renounceOwnership",
      "outputs": [],
      "stateMutability": "nonpayable",
      "type": "function"
    },
    {
      "inputs": [
        {
          "internalType": "address[]",
          "name": "addrs",
          "type": "address[]"
        },
        {
          "internalType": "uint16[]",
          "name": "weights",
          "type": "uint16[]"
        }
      ],
      "name": "setAssociations",
      "outputs": [],
      "stateMutability": "nonpayable",
      "type": "function"
    },
    {
      "inputs": [
        {
          "internalType": "uint256",
          "name": "max",
          "type": "uint256"
        }
      ],
      "name": "setMaxAssociations",
      "outputs": [],
      "stateMutability": "nonpayable",
      "type": "function"
    },
    {
      "inputs": [
        {
          "internalType": "address",
          "name": "newTreasury",
          "type": "address"
        }
      ],
      "name": "setProtocolTreasury",
      "outputs": [],
      "stateMutability": "nonpayable",
      "type": "function"
    },
    {
      "inputs": [
        {
          "internalType": "uint256",
          "name": "_treasury",
          "type": "uint256"
        },
        {
          "internalType": "uint256",
          "name": "_association",
          "type": "uint256"
        },
        {
          "internalType": "uint256",
          "name": "_insurance",
          "type": "uint256"
        }
      ],
      "name": "setShares",
      "outputs": [],
      "stateMutability": "nonpayable",
      "type": "function"
    },
    {
      "inputs": [],
      "name": "totalAssocWeight",
      "outputs": [
        {
          "internalType": "uint256",
          "name": "",
          "type": "uint256"
        }
      ],
      "stateMutability": "view",
      "type": "function"
    },
    {
      "inputs": [
        {
          "internalType": "address",
          "name": "newOwner",
          "type": "address"
        }
      ],
      "name": "transferOwnership",
      "outputs": [],
      "stateMutability": "nonpayable",
      "type": "function"
    },
    {
      "inputs": [],
      "name": "treasury",
      "outputs": [
        {
          "internalType": "address",
          "name": "",
          "type": "address"
        }
      ],
      "stateMutability": "view",
      "type": "function"
    },
    {
      "inputs": [],
      "name": "treasuryWeight",
      "outputs": [
        {
          "internalType": "uint16",
          "name": "",
          "type": "uint16"
        }
      ],
      "stateMutability": "view",
      "type": "function"
    },
    {
      "inputs": [],
      "name": "vaultCount",
      "outputs": [
        {
          "internalType": "uint256",
          "name": "",
          "type": "uint256"
        }
      ],
      "stateMutability": "view",
      "type": "function"
    },
    {
      "inputs": [
        {
          "internalType": "uint256",
          "name": "",
          "type": "uint256"
        }
      ],
      "name": "vaults",
      "outputs": [
        {
          "internalType": "address",
          "name": "",
          "type": "address"
        }
      ],
      "stateMutability": "view",
      "type": "function"
    }
  ],
  "bytecode": "0x608060405234801561000f575f5ffd5b5060405161161938038061161983398101604081905261002e9161015d565b338061005357604051631e4fbdf760e01b81525f600482015260240160405180910390fd5b61005c816100f3565b506001600160a01b038216158061007a57506001600160a01b038116155b156100985760405163d92e233d60e01b815260040160405180910390fd5b60018054600280546001600160a01b039485166001600160b01b031990911617607d60a31b1763ffffffff60b01b1916620fa07d60b61b179055929091166001600160a81b031990921691909117600560a11b17905561018e565b5f80546001600160a01b038381166001600160a01b0319831681178455604051919092169283917f8be0079c531659141344cd1fd0a4f28419497f9722a3daafe3b4186f6b6457e09190a35050565b80516001600160a01b0381168114610158575f5ffd5b919050565b5f5f6040838503121561016e575f5ffd5b61017783610142565b915061018560208401610142565b90509250929050565b61147e8061019b5f395ff3fe608060405234801561000f575f5ffd5b5060043610610153575f3560e01c80638fef2122116100bf578063bd6921ac11610079578063bd6921ac146102eb578063c6eb0e5e146102fe578063ceb68c2314610311578063e4fc6b6d14610324578063eeb891481461032c578063f2fde38b1461033f575f5ffd5b80638fef21221461024d5780639e2c426014610273578063a0885e93146102a8578063a2aaccf8146102bb578063a7c6a100146102d0578063b7902303146102d8575f5ffd5b806361d027b31161011057806361d027b3146101d95780636c030b1314610204578063715018a61461021957806388573cb0146102215780638c64ea4a1461022a5780638da5cb5b1461023d575f5ffd5b806309162939146101575780630c5a61f81461018457806317e4efb3146101995780631bd928c2146101ac578063256b5a02146101be5780634e71d92d146101d1575b5f5ffd5b60025461016c90600160a01b900461ffff1681565b60405161ffff90911681526020015b60405180910390f35b6101976101923660046111b2565b610352565b005b6101976101a73660046111d2565b6103d2565b6005545b60405190815260200161017b565b6101976101cc3660046111b2565b61055d565b610197610653565b6001546101ec906001600160a01b031681565b6040516001600160a01b03909116815260200161017b565b60025461016c90600160b01b900461ffff1681565b6101976107b9565b6101b060065481565b6101ec6102383660046111d2565b6107cc565b5f546001600160a01b03166101ec565b60015461026190600160a01b900460ff1681565b60405160ff909116815260200161017b565b6102866102813660046111d2565b6107f4565b604080516001600160a01b03909316835261ffff90911660208301520161017b565b6101976102b63660046111e9565b610828565b60025461016c90600160c01b900461ffff1681565b6003546101b0565b6002546101ec906001600160a01b031681565b6101976102f936600461125a565b6108b3565b61019761030c3660046111d2565b610a94565b61019761031f3660046111b2565b610adc565b610197610c67565b61019761033a3660046112c6565b610f2c565b61019761034d3660046111b2565b61103e565b61035a611080565b6001600160a01b0381166103815760405163d92e233d60e01b815260040160405180910390fd5b600180546001600160a01b038381166001600160a01b0319831681179093556040519116919082907f4ab5be82436d353e61ca18726e984e561f5c1cc7c6d38b29d2553c790434705a905f90a35050565b6103da611080565b6005548082106103fd57604051634e23d03560e01b815260040160405180910390fd5b6005828154811061041057610410611344565b5f91825260209091200154600160a01b900461ffff16156104445760405163e08dbf3160e01b815260040160405180910390fd5b5f6005838154811061045857610458611344565b5f918252602090912001546001600160a01b03169050600561047b60018461136c565b8154811061048b5761048b611344565b905f5260205f2001600584815481106104a6576104a6611344565b5f91825260209091208254910180546001600160a01b039092166001600160a01b031983168117825592546001600160b01b0319909216909217600160a01b9182900461ffff16909102179055600580548061050457610504611385565b5f8281526020812082015f1990810180546001600160b01b03191690559091019091556040516001600160a01b038316917fb99d7ff06bb6452a9dbb08654395009e9530f7f55af79f69a8973071c222e69191a2505050565b610565611080565b6001600160a01b03811661058c5760405163d92e233d60e01b815260040160405180910390fd5b6001600160a01b0381165f9081526004602052604090205460ff16156105c55760405163f411c32760e01b815260040160405180910390fd5b6003805460018082019092557fc2575a0e9e593c00f959f8c92f12db2869c3395a3b0502d05e2516446f71f85b0180546001600160a01b0319166001600160a01b0384169081179091555f81815260046020526040808220805460ff1916909417909355915190917f7b7ef7a864d96a85497a1ed846adb39940dd6ccef678ff6ac8d55505e09b8cc491a250565b61065b611080565b6003545f805b82811015610796575f6003828154811061067d5761067d611344565b5f9182526020822001546040516370a0823160e01b81523060048201526001600160a01b03909116925082906370a0823190602401602060405180830381865afa1580156106cd573d5f5f3e3d5ffd5b505050506040513d601f19601f820116820180604052508101906106f19190611399565b9050805f0361070157505061078e565b6001805490945061071f906001600160a01b038481169116836110ac565b600154600380546001600160a01b03909216918590811061074257610742611344565b5f91825260209182902001546040518481526001600160a01b03909116917f7c54821308375bc06ed24e8f538fe70229cda4b570f05223a0fd5065d5dc94e4910160405180910390a350505b600101610661565b50806107b5576040516312d37ee560e31b815260040160405180910390fd5b5050565b6107c1611080565b6107ca5f6110e6565b565b600381815481106107db575f80fd5b5f918252602090912001546001600160a01b0316905081565b60058181548110610803575f80fd5b5f918252602090912001546001600160a01b0381169150600160a01b900461ffff1682565b610830611080565b6127108161083e84866113b0565b61084891906113b0565b14610866576040516317b8aaed60e01b815260040160405180910390fd5b6002805463ffffffff60a01b1916600160a01b61ffff9586160261ffff60b01b191617600160b01b938516939093029290921761ffff60c01b1916600160c01b9190931602919091179055565b6108bb611080565b8281146108de576040516001621398b960e31b0319815260040160405180910390fd5b6005548314610903576040516001621398b960e31b0319815260040160405180910390fd5b5f83808203610940575f60068190556040517f85911042fb4020a24bb5e7d7fef45d4faa12ec9bcd7d1e3a57c590ca50b7e9a49190a15050610a8e565b5f5b81811015610a3b575f87878381811061095d5761095d611344565b905060200201602081019061097291906111b2565b6001600160a01b0316036109995760405163d92e233d60e01b815260040160405180910390fd5b8484828181106109ab576109ab611344565b90506020020160208101906109c091906113c3565b6109ce9061ffff16846113b0565b92508484828181106109e2576109e2611344565b90506020020160208101906109f791906113c3565b60058281548110610a0a57610a0a611344565b5f918252602090912001805461ffff92909216600160a01b0261ffff60a01b19909216919091179055600101610942565b506127108214610a5e5760405163ae00433960e01b815260040160405180910390fd5b60068290556040517f85911042fb4020a24bb5e7d7fef45d4faa12ec9bcd7d1e3a57c590ca50b7e9a4905f90a150505b50505050565b610a9c611080565b805f03610abc57604051631f2a200560e01b815260040160405180910390fd5b6001805460ff909216600160a01b0260ff60a01b19909216919091179055565b610ae4611080565b6001600160a01b0381165f9081526004602052604090205460ff16610b1c5760405163c5723b5160e01b815260040160405180910390fd5b6001600160a01b0381165f908152600460205260408120805460ff19169055600354905b81811015610c2f57826001600160a01b031660038281548110610b6557610b65611344565b5f918252602090912001546001600160a01b031603610c27576003610b8b60018461136c565b81548110610b9b57610b9b611344565b5f91825260209091200154600380546001600160a01b039092169183908110610bc657610bc6611344565b905f5260205f20015f6101000a8154816001600160a01b0302191690836001600160a01b031602179055506003805480610c0257610c02611385565b5f8281526020902081015f1990810180546001600160a01b0319169055019055610c2f565b600101610b40565b506040516001600160a01b038316907fe71f3a50e5ad81964f352c411f1d45e35438ecd1acecef59ac81d9fbbf6cbc0a905f90a25050565b610c6f611080565b6003545f805b82811015610f0e575f60038281548110610c9157610c91611344565b5f9182526020822001546040516370a0823160e01b81523060048201526001600160a01b03909116925082906370a0823190602401602060405180830381865afa158015610ce1573d5f5f3e3d5ffd5b505050506040513d601f19601f82011682018060405250810190610d059190611399565b9050805f03610d15575050610f06565b600254600194505f9061271090610d3790600160a01b900461ffff16846113e4565b610d4191906113fb565b6002549091505f9061271090610d6290600160b01b900461ffff16856113e4565b610d6c91906113fb565b6002549091505f9061271090610d8d90600160c01b900461ffff16866113e4565b610d9791906113fb565b90508215610db957600154610db9906001600160a01b038781169116856110ac565b5f82118015610dc9575060055415155b8015610dd657505f600654115b15610e71576005545f5b81811015610e6e575f61271060058381548110610dff57610dff611344565b5f91825260209091200154610e1f90600160a01b900461ffff16876113e4565b610e2991906113fb565b90508015610e6557610e6560058381548110610e4757610e47611344565b5f918252602090912001546001600160a01b038a81169116836110ac565b50600101610de0565b50505b8015610e9157600254610e91906001600160a01b038781169116836110ac565b60038681548110610ea457610ea4611344565b5f9182526020918290200154604080518781529283018690528201849052606082018390526001600160a01b0316907ff65237916e11272b9949a5ae626d60becaa81be0e18560ff6e2390c4f4cc09119060800160405180910390a250505050505b600101610c75565b50806107b55760405162598fc960e21b815260040160405180910390fd5b610f34611080565b6001600160a01b038316610f5b5760405163d92e233d60e01b815260040160405180910390fd5b600154600554600160a01b90910460ff1611610f8a576040516308d9fe0f60e21b815260040160405180910390fd5b6040805180820182526001600160a01b038086168083525f6020840181815260058054600181018255925293517f036b6384b5eca791c62761152d0c79bb0604c104a5fb6f4eb0703f3154bb3db09091018054945161ffff16600160a01b026001600160b01b0319909516919093161792909217905590517f5839e65e218893d283223b7b695bb0ef2593259fe5d05d7c50dfca8a1fe0a1c390611031908590859061141a565b60405180910390a2505050565b611046611080565b6001600160a01b03811661107457604051631e4fbdf760e01b81525f60048201526024015b60405180910390fd5b61107d816110e6565b50565b5f546001600160a01b031633146107ca5760405163118cdaa760e01b815233600482015260240161106b565b6110b98383836001611135565b6110e157604051635274afe760e01b81526001600160a01b038416600482015260240161106b565b505050565b5f80546001600160a01b038381166001600160a01b0319831681178455604051919092169283917f8be0079c531659141344cd1fd0a4f28419497f9722a3daafe3b4186f6b6457e09190a35050565b60405163a9059cbb60e01b5f8181526001600160a01b038616600452602485905291602083604481808b5af1925060015f5114831661118b57838315161561117f573d5f823e3d81fd5b5f873b113d1516831692505b60405250949350505050565b80356001600160a01b03811681146111ad575f5ffd5b919050565b5f602082840312156111c2575f5ffd5b6111cb82611197565b9392505050565b5f602082840312156111e2575f5ffd5b5035919050565b5f5f5f606084860312156111fb575f5ffd5b505081359360208301359350604090920135919050565b5f5f83601f840112611222575f5ffd5b50813567ffffffffffffffff811115611239575f5ffd5b6020830191508360208260051b8501011115611253575f5ffd5b9250929050565b5f5f5f5f6040858703121561126d575f5ffd5b843567ffffffffffffffff811115611283575f5ffd5b61128f87828801611212565b909550935050602085013567ffffffffffffffff8111156112ae575f5ffd5b6112ba87828801611212565b95989497509550505050565b5f5f5f604084860312156112d8575f5ffd5b6112e184611197565b9250602084013567ffffffffffffffff8111156112fc575f5ffd5b8401601f8101861361130c575f5ffd5b803567ffffffffffffffff811115611322575f5ffd5b866020828401011115611333575f5ffd5b939660209190910195509293505050565b634e487b7160e01b5f52603260045260245ffd5b634e487b7160e01b5f52601160045260245ffd5b8181038181111561137f5761137f611358565b92915050565b634e487b7160e01b5f52603160045260245ffd5b5f602082840312156113a9575f5ffd5b5051919050565b8082018082111561137f5761137f611358565b5f602082840312156113d3575f5ffd5b813561ffff811681146111cb575f5ffd5b808202811582820484141761137f5761137f611358565b5f8261141557634e487b7160e01b5f52601260045260245ffd5b500490565b60208152816020820152818360408301375f818301604090810191909152601f909201601f1916010191905056fea2646970667358221220b21bc2c8b0fb5a0b30db7789cab832ccbc81cc61ac4d6e4281612862dea939d064736f6c63430008200033",
  "linkReferences": {},
  "deployedLinkReferences": {},
  "immutableReferences": {},
  "inputSourceName": "project/contracts/RevenueDistributor.sol",
  "buildInfoId": "solc-0_8_32-3eaf96b0beb551e49cc7d844b00561d6036ada94"
}