{
  "_format": "hh3-artifact-1",
  "contractName": "MockAdapter",
  "sourceName": "contracts/mocks/MockAdapter.sol",
  "abi": [
    {
      "inputs": [
        {
          "internalType": "address",
          "name": "usdc_",
          "type": "address"
        },
        {
          "internalType": "address",
          "name": "vault_",
          "type": "address"
        }
      ],
      "stateMutability": "nonpayable",
      "type": "constructor"
    },
    {
      "inputs": [],
      "name": "balanceInUSDC",
      "outputs": [
        {
          "internalType": "uint256",
          "name": "",
          "type": "uint256"
        }
      ],
      "stateMutability": "view",
      "type": "function"
    },
    {
      "inputs": [
        {
          "internalType": "uint256",
          "name": "amount",
          "type": "uint256"
        }
      ],
      "name": "deposit",
      "outputs": [],
      "stateMutability": "nonpayable",
      "type": "function"
    },
    {
      "inputs": [],
      "name": "revokeApprovals",
      "outputs": [],
      "stateMutability": "nonpayable",
      "type": "function"
    },
    {
      "inputs": [
        {
          "internalType": "address",
          "name": "vault_",
          "type": "address"
        }
      ],
      "name": "setVault",
      "outputs": [],
      "stateMutability": "nonpayable",
      "type": "function"
    },
    {
      "inputs": [
        {
          "internalType": "uint256",
          "name": "amount",
          "type": "uint256"
        }
      ],
      "name": "simulateYield",
      "outputs": [],
      "stateMutability": "nonpayable",
      "type": "function"
    },
    {
      "inputs": [],
      "name": "usdc",
      "outputs": [
        {
          "internalType": "contract IMintable",
          "name": "",
          "type": "address"
        }
      ],
      "stateMutability": "view",
      "type": "function"
    },
    {
      "inputs": [],
      "name": "vault",
      "outputs": [
        {
          "internalType": "address",
          "name": "",
          "type": "address"
        }
      ],
      "stateMutability": "view",
      "type": "function"
    },
    {
      "inputs": [
        {
          "internalType": "uint256",
          "name": "amount",
          "type": "uint256"
        }
      ],
      "name": "withdraw",
      "outputs": [],
      "stateMutability": "nonpayable",
      "type": "function"
    },
    {
      "inputs": [],
      "name": "withdrawAll",
      "outputs": [
        {
          "internalType": "uint256",
          "name": "",
          "type": "uint256"
        }
      ],
      "stateMutability": "nonpayable",
      "type": "function"
    }
  ],
  "bytecode": "0x6080604052348015600e575f5ffd5b506040516105e33803806105e3833981016040819052602b916074565b5f80546001600160a01b039384166001600160a01b0319918216179091556001805492909316911617905560a0565b80516001600160a01b0381168114606f575f5ffd5b919050565b5f5f604083850312156084575f5ffd5b608b83605a565b9150609760208401605a565b90509250929050565b610536806100ad5f395ff3fe608060405234801561000f575f5ffd5b5060043610610090575f3560e01c80639265a7d5116100635780639265a7d51461011e578063b6b55f2514610126578063da11373c14610139578063e7ca856d14610141578063fbfa77cf14610154575f5ffd5b80632e1a7d4d146100945780633e413bee146100a95780636817031b146100d8578063853828b614610108575b5f5ffd5b6100a76100a2366004610439565b610167565b005b5f546100bb906001600160a01b031681565b6040516001600160a01b0390911681526020015b60405180910390f35b6100a76100e6366004610450565b600180546001600160a01b0319166001600160a01b0392909216919091179055565b610110610229565b6040519081526020016100cf565b6100a76102df565b6100a7610134366004610439565b61030b565b600254610110565b6100a761014f366004610439565b6103ca565b6001546100bb906001600160a01b031681565b6001546001600160a01b0316331461019a5760405162461bcd60e51b81526004016101919061047d565b60405180910390fd5b8060025f8282546101ab91906104b5565b90915550505f5460015460405163a9059cbb60e01b81526001600160a01b0391821660048201526024810184905291169063a9059cbb906044016020604051808303815f875af1158015610201573d5f5f3e3d5ffd5b505050506040513d601f19601f8201168201806040525081019061022591906104ce565b5050565b6001545f906001600160a01b031633146102555760405162461bcd60e51b81526004016101919061047d565b600280545f90915580156102da575f5460015460405163a9059cbb60e01b81526001600160a01b0391821660048201526024810184905291169063a9059cbb906044016020604051808303815f875af11580156102b4573d5f5f3e3d5ffd5b505050506040513d601f19601f820116820180604052508101906102d891906104ce565b505b905090565b6001546001600160a01b031633146103095760405162461bcd60e51b81526004016101919061047d565b565b6001546001600160a01b031633146103355760405162461bcd60e51b81526004016101919061047d565b5f546001546040516323b872dd60e01b81526001600160a01b039182166004820152306024820152604481018490529116906323b872dd906064016020604051808303815f875af115801561038c573d5f5f3e3d5ffd5b505050506040513d601f19601f820116820180604052508101906103b091906104ce565b508060025f8282546103c291906104ed565b909155505050565b5f546040516340c10f1960e01b8152306004820152602481018390526001600160a01b03909116906340c10f19906044015f604051808303815f87803b158015610412575f5ffd5b505af1158015610424573d5f5f3e3d5ffd5b505050508060025f8282546103c291906104ed565b5f60208284031215610449575f5ffd5b5035919050565b5f60208284031215610460575f5ffd5b81356001600160a01b0381168114610476575f5ffd5b9392505050565b6020808252600a90820152691bdb9b1e481d985d5b1d60b21b604082015260600190565b634e487b7160e01b5f52601160045260245ffd5b818103818111156104c8576104c86104a1565b92915050565b5f602082840312156104de575f5ffd5b81518015158114610476575f5ffd5b808201808211156104c8576104c86104a156fea264697066735822122055654e547a29574e3e72c50becd722f6385e859b6003e6971d884d8487b9827d64736f6c63430008200033",
  "linkReferences": {},
  "deployedLinkReferences": {},
  "immutableReferences": {},
  "inputSourceName": "project/contracts/mocks/MockAdapter.sol",
  "buildInfoId": "solc-0_8_32-04b128b44395aa4c0883de9138d03c63eab7d4b4"
}